{"abi":[{"type":"constructor","inputs":[{"name":"_ftsoV2","type":"address","internalType":"address"},{"name":"_fdcVerification","type":"address","internalType":"address"},{"name":"_merchantWallet","type":"address","internalType":"address"}],"stateMutability":"nonpayable"},{"type":"function","name":"createInvoice","inputs":[{"name":"_listingId","type":"uint256","internalType":"uint256"},{"name":"_currency","type":"string","internalType":"string"},{"name":"_paymentReference","type":"bytes32","internalType":"bytes32"}],"outputs":[{"name":"invoiceId","type":"uint256","internalType":"uint256"}],"stateMutability":"nonpayable"},{"type":"function","name":"fAssets","inputs":[{"name":"","type":"string","internalType":"string"}],"outputs":[{"name":"","type":"address","internalType":"contract MockFAsset"}],"stateMutability":"view"},{"type":"function","name":"fdcVerification","inputs":[],"outputs":[{"name":"","type":"address","internalType":"contract IPaymentVerification"}],"stateMutability":"view"},{"type":"function","name":"ftsoFeeds","inputs":[{"name":"","type":"string","internalType":"string"}],"outputs":[{"name":"","type":"bytes21","internalType":"bytes21"}],"stateMutability":"view"},{"type":"function","name":"ftsoV2","inputs":[],"outputs":[{"name":"","type":"address","internalType":"contract IFtsoV2"}],"stateMutability":"view"},{"type":"function","name":"getLivePrice","inputs":[{"name":"_ticker","type":"string","internalType":"string"}],"outputs":[{"name":"price","type":"uint256","internalType":"uint256"},{"name":"decimals","type":"int8","internalType":"int8"}],"stateMutability":"view"},{"type":"function","name":"getReviewsCount","inputs":[{"name":"_seller","type":"address","internalType":"address"}],"outputs":[{"name":"","type":"uint256","internalType":"uint256"}],"stateMutability":"view"},{"type":"function","name":"getSellerReviews","inputs":[{"name":"_seller","type":"address","internalType":"address"}],"outputs":[{"name":"","type":"tuple[]","internalType":"struct FlarityMerchantGateway.Review[]","components":[{"name":"id","type":"uint256","internalType":"uint256"},{"name":"seller","type":"address","internalType":"address"},{"name":"buyer","type":"address","internalType":"address"},{"name":"rating","type":"uint8","internalType":"uint8"},{"name":"comment","type":"string","internalType":"string"},{"name":"timestamp","type":"uint256","internalType":"uint256"}]}],"stateMutability":"view"},{"type":"function","name":"hasPurchasedFrom","inputs":[{"name":"","type":"address","internalType":"address"},{"name":"","type":"address","internalType":"address"}],"outputs":[{"name":"","type":"bool","internalType":"bool"}],"stateMutability":"view"},{"type":"function","name":"invoiceCount","inputs":[],"outputs":[{"name":"","type":"uint256","internalType":"uint256"}],"stateMutability":"view"},{"type":"function","name":"invoices","inputs":[{"name":"","type":"uint256","internalType":"uint256"}],"outputs":[{"name":"id","type":"uint256","internalType":"uint256"},{"name":"buyer","type":"address","internalType":"address"},{"name":"seller","type":"address","internalType":"address"},{"name":"amountUSD","type":"uint256","internalType":"uint256"},{"name":"paymentReference","type":"bytes32","internalType":"bytes32"},{"name":"currency","type":"string","internalType":"string"},{"name":"amountCrypto","type":"uint256","internalType":"uint256"},{"name":"settled","type":"bool","internalType":"bool"}],"stateMutability":"view"},{"type":"function","name":"listItem","inputs":[{"name":"_title","type":"string","internalType":"string"},{"name":"_description","type":"string","internalType":"string"},{"name":"_priceUSD","type":"uint256","internalType":"uint256"},{"name":"_imageUrl","type":"string","internalType":"string"},{"name":"_listingType","type":"uint8","internalType":"enum FlarityMerchantGateway.ListingType"}],"outputs":[{"name":"listingId","type":"uint256","internalType":"uint256"}],"stateMutability":"nonpayable"},{"type":"function","name":"listingCount","inputs":[],"outputs":[{"name":"","type":"uint256","internalType":"uint256"}],"stateMutability":"view"},{"type":"function","name":"listings","inputs":[{"name":"","type":"uint256","internalType":"uint256"}],"outputs":[{"name":"id","type":"uint256","internalType":"uint256"},{"name":"seller","type":"address","internalType":"address"},{"name":"title","type":"string","internalType":"string"},{"name":"description","type":"string","internalType":"string"},{"name":"priceUSD","type":"uint256","internalType":"uint256"},{"name":"imageUrl","type":"string","internalType":"string"},{"name":"listingType","type":"uint8","internalType":"enum FlarityMerchantGateway.ListingType"},{"name":"active","type":"bool","internalType":"bool"}],"stateMutability":"view"},{"type":"function","name":"merchantWallet","inputs":[],"outputs":[{"name":"","type":"address","internalType":"address"}],"stateMutability":"view"},{"type":"function","name":"owner","inputs":[],"outputs":[{"name":"","type":"address","internalType":"address"}],"stateMutability":"view"},{"type":"function","name":"referenceToInvoiceId","inputs":[{"name":"","type":"bytes32","internalType":"bytes32"}],"outputs":[{"name":"","type":"uint256","internalType":"uint256"}],"stateMutability":"view"},{"type":"function","name":"reviewCount","inputs":[],"outputs":[{"name":"","type":"uint256","internalType":"uint256"}],"stateMutability":"view"},{"type":"function","name":"sellerRatingSums","inputs":[{"name":"","type":"address","internalType":"address"}],"outputs":[{"name":"","type":"uint256","internalType":"uint256"}],"stateMutability":"view"},{"type":"function","name":"sellerReviews","inputs":[{"name":"","type":"address","internalType":"address"},{"name":"","type":"uint256","internalType":"uint256"}],"outputs":[{"name":"id","type":"uint256","internalType":"uint256"},{"name":"seller","type":"address","internalType":"address"},{"name":"buyer","type":"address","internalType":"address"},{"name":"rating","type":"uint8","internalType":"uint8"},{"name":"comment","type":"string","internalType":"string"},{"name":"timestamp","type":"uint256","internalType":"uint256"}],"stateMutability":"view"},{"type":"function","name":"setFAsset","inputs":[{"name":"_ticker","type":"string","internalType":"string"},{"name":"_fAssetAddress","type":"address","internalType":"address"}],"outputs":[],"stateMutability":"nonpayable"},{"type":"function","name":"setFdcVerification","inputs":[{"name":"_fdcVerification","type":"address","internalType":"address"}],"outputs":[],"stateMutability":"nonpayable"},{"type":"function","name":"setMerchantWallet","inputs":[{"name":"_merchantWallet","type":"address","internalType":"address"}],"outputs":[],"stateMutability":"nonpayable"},{"type":"function","name":"settlePayment","inputs":[{"name":"_invoiceId","type":"uint256","internalType":"uint256"},{"name":"_proof","type":"tuple","internalType":"struct IPaymentVerification.Proof","components":[{"name":"merkleRoot","type":"bytes32","internalType":"bytes32"},{"name":"merkleProof","type":"bytes32[]","internalType":"bytes32[]"},{"name":"requestBody","type":"tuple","internalType":"struct IPaymentVerification.RequestBody","components":[{"name":"attestationType","type":"string","internalType":"string"},{"name":"sourceId","type":"string","internalType":"string"},{"name":"transactionId","type":"bytes32","internalType":"bytes32"},{"name":"paymentReference","type":"bytes32","internalType":"bytes32"},{"name":"amount","type":"uint256","internalType":"uint256"},{"name":"receivingAddress","type":"string","internalType":"string"}]}]}],"outputs":[],"stateMutability":"nonpayable"},{"type":"function","name":"submitReview","inputs":[{"name":"_seller","type":"address","internalType":"address"},{"name":"_rating","type":"uint8","internalType":"uint8"},{"name":"_comment","type":"string","internalType":"string"}],"outputs":[],"stateMutability":"nonpayable"},{"type":"function","name":"tokenDecimals","inputs":[{"name":"","type":"string","internalType":"string"}],"outputs":[{"name":"","type":"uint8","internalType":"uint8"}],"stateMutability":"view"},{"type":"event","name":"InvoiceCreated","inputs":[{"name":"invoiceId","type":"uint256","indexed":true,"internalType":"uint256"},{"name":"buyer","type":"address","indexed":true,"internalType":"address"},{"name":"seller","type":"address","indexed":true,"internalType":"address"},{"name":"amountUSD","type":"uint256","indexed":false,"internalType":"uint256"},{"name":"currency","type":"string","indexed":false,"internalType":"string"},{"name":"amountCrypto","type":"uint256","indexed":false,"internalType":"uint256"},{"name":"paymentReference","type":"bytes32","indexed":false,"internalType":"bytes32"}],"anonymous":false},{"type":"event","name":"ListingCreated","inputs":[{"name":"listingId","type":"uint256","indexed":true,"internalType":"uint256"},{"name":"seller","type":"address","indexed":true,"internalType":"address"},{"name":"title","type":"string","indexed":false,"internalType":"string"},{"name":"priceUSD","type":"uint256","indexed":false,"internalType":"uint256"},{"name":"listingType","type":"uint8","indexed":false,"internalType":"enum FlarityMerchantGateway.ListingType"}],"anonymous":false},{"type":"event","name":"PaymentSettled","inputs":[{"name":"invoiceId","type":"uint256","indexed":true,"internalType":"uint256"},{"name":"transactionId","type":"bytes32","indexed":false,"internalType":"bytes32"},{"name":"amountPaid","type":"uint256","indexed":false,"internalType":"uint256"},{"name":"fassetsMinted","type":"uint256","indexed":false,"internalType":"uint256"}],"anonymous":false},{"type":"event","name":"ReviewSubmitted","inputs":[{"name":"reviewId","type":"uint256","indexed":true,"internalType":"uint256"},{"name":"seller","type":"address","indexed":true,"internalType":"address"},{"name":"buyer","type":"address","indexed":true,"internalType":"address"},{"name":"rating","type":"uint8","indexed":false,"internalType":"uint8"},{"name":"comment","type":"string","indexed":false,"internalType":"string"}],"anonymous":false}],"bytecode":{"object":"0x60a060405234801561000f575f5ffd5b50604051614d75380380614d75833981810160405281019061003191906103de565b3360015f6101000a81548173ffffffffffffffffffffffffffffffffffffffff021916908373ffffffffffffffffffffffffffffffffffffffff1602179055508273ffffffffffffffffffffffffffffffffffffffff1660808173ffffffffffffffffffffffffffffffffffffffff1681525050815f5f6101000a81548173ffffffffffffffffffffffffffffffffffffffff021916908373ffffffffffffffffffffffffffffffffffffffff1602179055508060025f6101000a81548173ffffffffffffffffffffffffffffffffffffffff021916908373ffffffffffffffffffffffffffffffffffffffff1602179055507401464c522f5553440000000000000000000000000060581b600360405161014b90610482565b90815260200160405180910390205f6101000a81548174ffffffffffffffffffffffffffffffffffffffffff021916908360581c021790555074014254432f5553440000000000000000000000000060581b60036040516101ab906104e0565b90815260200160405180910390205f6101000a81548174ffffffffffffffffffffffffffffffffffffffffff021916908360581c021790555074015852502f5553440000000000000000000000000060581b600360405161020b9061053e565b90815260200160405180910390205f6101000a81548174ffffffffffffffffffffffffffffffffffffffffff021916908360581c02179055507401444f47452f55534400000000000000000000000060581b600360405161026b9061059c565b90815260200160405180910390205f6101000a81548174ffffffffffffffffffffffffffffffffffffffffff021916908360581c0217905550601260046040516102b490610482565b90815260200160405180910390205f6101000a81548160ff021916908360ff160217905550600660046040516102e99061053e565b90815260200160405180910390205f6101000a81548160ff021916908360ff1602179055506008600460405161031e906104e0565b90815260200160405180910390205f6101000a81548160ff021916908360ff160217905550600860046040516103539061059c565b90815260200160405180910390205f6101000a81548160ff021916908360ff1602179055505050506105b0565b5f5ffd5b5f73ffffffffffffffffffffffffffffffffffffffff82169050919050565b5f6103ad82610384565b9050919050565b6103bd816103a3565b81146103c7575f5ffd5b50565b5f815190506103d8816103b4565b92915050565b5f5f5f606084860312156103f5576103f4610380565b5b5f610402868287016103ca565b9350506020610413868287016103ca565b9250506040610424868287016103ca565b9150509250925092565b5f81905092915050565b7f464c5200000000000000000000000000000000000000000000000000000000005f82015250565b5f61046c60038361042e565b915061047782610438565b600382019050919050565b5f61048c82610460565b9150819050919050565b7f42544300000000000000000000000000000000000000000000000000000000005f82015250565b5f6104ca60038361042e565b91506104d582610496565b600382019050919050565b5f6104ea826104be565b9150819050919050565b7f58525000000000000000000000000000000000000000000000000000000000005f82015250565b5f61052860038361042e565b9150610533826104f4565b600382019050919050565b5f6105488261051c565b9150819050919050565b7f444f4745000000000000000000000000000000000000000000000000000000005f82015250565b5f61058660048361042e565b915061059182610552565b600482019050919050565b5f6105a68261057a565b9150819050919050565b6080516147a66105cf5f395f8181610cd301526114fc01526147a65ff3fe608060405234801561000f575f5ffd5b506004361061018b575f3560e01c8063a9b07c26116100dc578063ddda66db11610095578063e443147f1161006f578063e443147f1461051b578063e66c64b914610537578063eff5924f14610553578063f454fd9b146105715761018b565b8063ddda66db14610498578063de74e57b146104b4578063dea88770146104eb5761018b565b8063a9b07c2614610397578063b5ccb437146103b5578063bc85e064146103e5578063c95de39114610403578063cf7d016814610433578063dbeca2a0146104685761018b565b80634e6d14051161014957806362e39d1c1161012357806362e39d1c146102fc578063869814781461032c5780638da5cb5b1461035d578063a68839291461037b5761018b565b80634e6d14051461027957806355495f1f146102b057806360a04c77146102cc5761018b565b80628f248b1461018f5780631346f0c4146101bf57806325e89883146101dd5780632f2131d1146101fb5780633ad6d5161461022b5780634cfa2b2414610249575b5f5ffd5b6101a960048036038101906101a4919061265d565b6105a1565b6040516101b691906126dd565b60405180910390f35b6101c7610ccb565b6040516101d491906126dd565b60405180910390f35b6101e5610cd1565b6040516101f29190612770565b60405180910390f35b610215600480360381019061021091906127c4565b610cf5565b60405161022291906129d9565b60405180910390f35b610233610ef8565b6040516102409190612a19565b60405180910390f35b610263600480360381019061025e9190612a32565b610f1c565b60405161027091906126dd565b60405180910390f35b610293600480360381019061028e9190612a5d565b610f31565b6040516102a7989796959493929190612b08565b60405180910390f35b6102ca60048036038101906102c59190612bb5565b611045565b005b6102e660048036038101906102e19190612d4e565b61141f565b6040516102f39190612dcf565b60405180910390f35b610316600480360381019061031191906127c4565b611454565b60405161032391906126dd565b60405180910390f35b61034660048036038101906103419190612d4e565b611469565b604051610354929190612e02565b60405180910390f35b6103656115a1565b6040516103729190612e29565b60405180910390f35b61039560048036038101906103909190612e42565b6115c6565b005b61039f6116b8565b6040516103ac91906126dd565b60405180910390f35b6103cf60048036038101906103ca9190612e9f565b6116be565b6040516103dc9190612edd565b60405180910390f35b6103ed6116e8565b6040516103fa9190612e29565b60405180910390f35b61041d600480360381019061041891906127c4565b61170d565b60405161042a91906126dd565b60405180910390f35b61044d60048036038101906104489190612ef6565b611756565b60405161045f96959493929190612f43565b60405180910390f35b610482600480360381019061047d9190612d4e565b611879565b60405161048f9190612fc9565b60405180910390f35b6104b260048036038101906104ad91906127c4565b6118c1565b005b6104ce60048036038101906104c99190612a5d565b611993565b6040516104e2989796959493929190613055565b60405180910390f35b61050560048036038101906105009190613109565b611ba1565b60405161051291906126dd565b60405180910390f35b610535600480360381019061053091906127c4565b611e8c565b005b610551600480360381019061054c9190613202565b611f5d565b005b61055b61254a565b60405161056891906126dd565b60405180910390f35b61058b60048036038101906105869190612d4e565b612550565b604051610598919061325c565b60405180910390f35b5f5f60075f8781526020019081526020015f20604051806101000160405290815f8201548152602001600182015f9054906101000a900473ffffffffffffffffffffffffffffffffffffffff1673ffffffffffffffffffffffffffffffffffffffff1673ffffffffffffffffffffffffffffffffffffffff16815260200160028201805461062e906132a2565b80601f016020809104026020016040519081016040528092919081815260200182805461065a906132a2565b80156106a55780601f1061067c576101008083540402835291602001916106a5565b820191905f5260205f20905b81548152906001019060200180831161068857829003601f168201915b505050505081526020016003820180546106be906132a2565b80601f01602080910402602001604051908101604052809291908181526020018280546106ea906132a2565b80156107355780601f1061070c57610100808354040283529160200191610735565b820191905f5260205f20905b81548152906001019060200180831161071857829003601f168201915b5050505050815260200160048201548152602001600582018054610758906132a2565b80601f0160208091040260200160405190810160405280929190818152602001828054610784906132a2565b80156107cf5780601f106107a6576101008083540402835291602001916107cf565b820191905f5260205f20905b8154815290600101906020018083116107b257829003601f168201915b50505050508152602001600682015f9054906101000a900460ff1660018111156107fc576107fb612fe2565b5b600181111561080e5761080d612fe2565b5b81526020016006820160019054906101000a900460ff16151515158152505090505f815f015103610874576040517f08c379a000000000000000000000000000000000000000000000000000000000815260040161086b9061331c565b60405180910390fd5b8060e001516108b8576040517f08c379a00000000000000000000000000000000000000000000000000000000081526004016108af90613384565b60405180910390fd5b5f600a5f8581526020019081526020015f20541461090b576040517f08c379a0000000000000000000000000000000000000000000000000000000008152600401610902906133ec565b60405180910390fd5b5f5f61095987878080601f0160208091040260200160405190810160405280939291908181526020018383808284375f81840152601f19601f82011690508083019250505050505050611469565b915091505f821161099f576040517f08c379a000000000000000000000000000000000000000000000000000000000815260040161099690613454565b60405180910390fd5b5f600488886040516109b29291906134a0565b90815260200160405180910390205f9054906101000a900460ff1690505f8160ff1611610a14576040517f08c379a0000000000000000000000000000000000000000000000000000000008152600401610a0b90613502565b60405180910390fd5b5f670de0b6b3a764000084610a29919061354d565b82600a610a3691906136bd565b84600a610a4391906136bd565b8760800151610a52919061354d565b610a5c919061354d565b610a669190613734565b905060085f815480929190610a7a90613764565b919050555060085495506040518061010001604052808781526020013373ffffffffffffffffffffffffffffffffffffffff168152602001866020015173ffffffffffffffffffffffffffffffffffffffff168152602001866080015181526020018881526020018a8a8080601f0160208091040260200160405190810160405280939291908181526020018383808284375f81840152601f19601f8201169050808301925050505050505081526020018281526020015f151581525060095f8881526020019081526020015f205f820151815f01556020820151816001015f6101000a81548173ffffffffffffffffffffffffffffffffffffffff021916908373ffffffffffffffffffffffffffffffffffffffff1602179055506040820151816002015f6101000a81548173ffffffffffffffffffffffffffffffffffffffff021916908373ffffffffffffffffffffffffffffffffffffffff160217905550606082015181600301556080820151816004015560a0820151816005019081610c059190613953565b5060c0820151816006015560e0820151816007015f6101000a81548160ff02191690831515021790555090505085600a5f8981526020019081526020015f2081905550846020015173ffffffffffffffffffffffffffffffffffffffff163373ffffffffffffffffffffffffffffffffffffffff16877fd05e937899919413d3fd1120b330b5104e7340fa1b22f4b2b4117addb5511b9388608001518d8d878e604051610cb6959493929190613a4e565b60405180910390a45050505050949350505050565b60085481565b7f000000000000000000000000000000000000000000000000000000000000000081565b6060600c5f8373ffffffffffffffffffffffffffffffffffffffff1673ffffffffffffffffffffffffffffffffffffffff1681526020019081526020015f20805480602002602001604051908101604052809291908181526020015f905b82821015610eed578382905f5260205f2090600502016040518060c00160405290815f8201548152602001600182015f9054906101000a900473ffffffffffffffffffffffffffffffffffffffff1673ffffffffffffffffffffffffffffffffffffffff1673ffffffffffffffffffffffffffffffffffffffff168152602001600282015f9054906101000a900473ffffffffffffffffffffffffffffffffffffffff1673ffffffffffffffffffffffffffffffffffffffff1673ffffffffffffffffffffffffffffffffffffffff1681526020016002820160149054906101000a900460ff1660ff1660ff168152602001600382018054610e54906132a2565b80601f0160208091040260200160405190810160405280929190818152602001828054610e80906132a2565b8015610ecb5780601f10610ea257610100808354040283529160200191610ecb565b820191905f5260205f20905b815481529060010190602001808311610eae57829003601f168201915b5050505050815260200160048201548152505081526020019060010190610d53565b505050509050919050565b5f5f9054906101000a900473ffffffffffffffffffffffffffffffffffffffff1681565b600a602052805f5260405f205f915090505481565b6009602052805f5260405f205f91509050805f015490806001015f9054906101000a900473ffffffffffffffffffffffffffffffffffffffff1690806002015f9054906101000a900473ffffffffffffffffffffffffffffffffffffffff1690806003015490806004015490806005018054610fac906132a2565b80601f0160208091040260200160405190810160405280929190818152602001828054610fd8906132a2565b80156110235780601f10610ffa57610100808354040283529160200191611023565b820191905f5260205f20905b81548152906001019060200180831161100657829003601f168201915b505050505090806006015490806007015f9054906101000a900460ff16905088565b60018360ff161015801561105d575060058360ff1611155b61109c576040517f08c379a000000000000000000000000000000000000000000000000000000000815260040161109390613b0a565b60405180910390fd5b600e5f3373ffffffffffffffffffffffffffffffffffffffff1673ffffffffffffffffffffffffffffffffffffffff1681526020019081526020015f205f8573ffffffffffffffffffffffffffffffffffffffff1673ffffffffffffffffffffffffffffffffffffffff1681526020019081526020015f205f9054906101000a900460ff16611160576040517f08c379a000000000000000000000000000000000000000000000000000000000815260040161115790613b72565b60405180910390fd5b600b5f81548092919061117290613764565b91905055505f6040518060c00160405280600b5481526020018673ffffffffffffffffffffffffffffffffffffffff1681526020013373ffffffffffffffffffffffffffffffffffffffff1681526020018560ff16815260200184848080601f0160208091040260200160405190810160405280939291908181526020018383808284375f81840152601f19601f820116905080830192505050505050508152602001428152509050600c5f8673ffffffffffffffffffffffffffffffffffffffff1673ffffffffffffffffffffffffffffffffffffffff1681526020019081526020015f2081908060018154018082558091505060019003905f5260205f2090600502015f909190919091505f820151815f01556020820151816001015f6101000a81548173ffffffffffffffffffffffffffffffffffffffff021916908373ffffffffffffffffffffffffffffffffffffffff1602179055506040820151816002015f6101000a81548173ffffffffffffffffffffffffffffffffffffffff021916908373ffffffffffffffffffffffffffffffffffffffff16021790555060608201518160020160146101000a81548160ff021916908360ff16021790555060808201518160030190816113499190613953565b5060a0820151816004015550508360ff16600d5f8773ffffffffffffffffffffffffffffffffffffffff1673ffffffffffffffffffffffffffffffffffffffff1681526020019081526020015f205f8282546113a59190613b90565b925050819055503373ffffffffffffffffffffffffffffffffffffffff168573ffffffffffffffffffffffffffffffffffffffff16600b547f0d1d6b5fdcc269f15c3c023f437df57afaf129b821fdca9726533515f0717f2887878760405161141093929190613bc3565b60405180910390a45050505050565b6003818051602081018201805184825260208301602085012081835280955050505050505f915054906101000a900460581b81565b600d602052805f5260405f205f915090505481565b5f5f5f60038460405161147c9190613c23565b90815260200160405180910390205f9054906101000a900460581b90505f60581b6affffffffffffffffffffff1916816affffffffffffffffffffff1916036114fa576040517f08c379a00000000000000000000000000000000000000000000000000000000081526004016114f190613c83565b60405180910390fd5b7f000000000000000000000000000000000000000000000000000000000000000073ffffffffffffffffffffffffffffffffffffffff166393e9f806826040518263ffffffff1660e01b81526004016115539190612dcf565b606060405180830381865afa15801561156e573d5f5f3e3d5ffd5b505050506040513d601f19601f820116820180604052508101906115929190613d1c565b50809350819450505050915091565b60015f9054906101000a900473ffffffffffffffffffffffffffffffffffffffff1681565b60015f9054906101000a900473ffffffffffffffffffffffffffffffffffffffff1673ffffffffffffffffffffffffffffffffffffffff163373ffffffffffffffffffffffffffffffffffffffff1614611655576040517f08c379a000000000000000000000000000000000000000000000000000000000815260040161164c90613db6565b60405180910390fd5b80600584846040516116689291906134a0565b90815260200160405180910390205f6101000a81548173ffffffffffffffffffffffffffffffffffffffff021916908373ffffffffffffffffffffffffffffffffffffffff160217905550505050565b60065481565b600e602052815f5260405f20602052805f5260405f205f915091509054906101000a900460ff1681565b60025f9054906101000a900473ffffffffffffffffffffffffffffffffffffffff1681565b5f600c5f8373ffffffffffffffffffffffffffffffffffffffff1673ffffffffffffffffffffffffffffffffffffffff1681526020019081526020015f20805490509050919050565b600c602052815f5260405f20818154811061176f575f80fd5b905f5260205f2090600502015f9150915050805f015490806001015f9054906101000a900473ffffffffffffffffffffffffffffffffffffffff1690806002015f9054906101000a900473ffffffffffffffffffffffffffffffffffffffff16908060020160149054906101000a900460ff16908060030180546117f2906132a2565b80601f016020809104026020016040519081016040528092919081815260200182805461181e906132a2565b80156118695780601f1061184057610100808354040283529160200191611869565b820191905f5260205f20905b81548152906001019060200180831161184c57829003601f168201915b5050505050908060040154905086565b6005818051602081018201805184825260208301602085012081835280955050505050505f915054906101000a900473ffffffffffffffffffffffffffffffffffffffff1681565b60015f9054906101000a900473ffffffffffffffffffffffffffffffffffffffff1673ffffffffffffffffffffffffffffffffffffffff163373ffffffffffffffffffffffffffffffffffffffff1614611950576040517f08c379a000000000000000000000000000000000000000000000000000000000815260040161194790613db6565b60405180910390fd5b8060025f6101000a81548173ffffffffffffffffffffffffffffffffffffffff021916908373ffffffffffffffffffffffffffffffffffffffff16021790555050565b6007602052805f5260405f205f91509050805f015490806001015f9054906101000a900473ffffffffffffffffffffffffffffffffffffffff16908060020180546119dd906132a2565b80601f0160208091040260200160405190810160405280929190818152602001828054611a09906132a2565b8015611a545780601f10611a2b57610100808354040283529160200191611a54565b820191905f5260205f20905b815481529060010190602001808311611a3757829003601f168201915b505050505090806003018054611a69906132a2565b80601f0160208091040260200160405190810160405280929190818152602001828054611a95906132a2565b8015611ae05780601f10611ab757610100808354040283529160200191611ae0565b820191905f5260205f20905b815481529060010190602001808311611ac357829003601f168201915b505050505090806004015490806005018054611afb906132a2565b80601f0160208091040260200160405190810160405280929190818152602001828054611b27906132a2565b8015611b725780601f10611b4957610100808354040283529160200191611b72565b820191905f5260205f20905b815481529060010190602001808311611b5557829003601f168201915b505050505090806006015f9054906101000a900460ff16908060060160019054906101000a900460ff16905088565b5f5f8511611be4576040517f08c379a0000000000000000000000000000000000000000000000000000000008152600401611bdb90613e1e565b60405180910390fd5b60065f815480929190611bf690613764565b919050555060065490506040518061010001604052808281526020013373ffffffffffffffffffffffffffffffffffffffff1681526020018a8a8080601f0160208091040260200160405190810160405280939291908181526020018383808284375f81840152601f19601f82011690508083019250505050505050815260200188888080601f0160208091040260200160405190810160405280939291908181526020018383808284375f81840152601f19601f82011690508083019250505050505050815260200186815260200185858080601f0160208091040260200160405190810160405280939291908181526020018383808284375f81840152601f19601f820116905080830192505050505050508152602001836001811115611d2257611d21612fe2565b5b81526020016001151581525060075f8381526020019081526020015f205f820151815f01556020820151816001015f6101000a81548173ffffffffffffffffffffffffffffffffffffffff021916908373ffffffffffffffffffffffffffffffffffffffff1602179055506040820151816002019081611da29190613953565b506060820151816003019081611db89190613953565b506080820151816004015560a0820151816005019081611dd89190613953565b5060c0820151816006015f6101000a81548160ff02191690836001811115611e0357611e02612fe2565b5b021790555060e08201518160060160016101000a81548160ff0219169083151502179055509050503373ffffffffffffffffffffffffffffffffffffffff16817fb1ab4850fee177de967c3668c249e45f68fb34111a3a931948634cf342dfe2488b8b8987604051611e789493929190613e3c565b60405180910390a398975050505050505050565b60015f9054906101000a900473ffffffffffffffffffffffffffffffffffffffff1673ffffffffffffffffffffffffffffffffffffffff163373ffffffffffffffffffffffffffffffffffffffff1614611f1b576040517f08c379a0000000000000000000000000000000000000000000000000000000008152600401611f1290613db6565b60405180910390fd5b805f5f6101000a81548173ffffffffffffffffffffffffffffffffffffffff021916908373ffffffffffffffffffffffffffffffffffffffff16021790555050565b5f60095f8481526020019081526020015f2090505f815f015403611fb6576040517f08c379a0000000000000000000000000000000000000000000000000000000008152600401611fad90613ec4565b60405180910390fd5b806007015f9054906101000a900460ff1615612007576040517f08c379a0000000000000000000000000000000000000000000000000000000008152600401611ffe90613f2c565b60405180910390fd5b806004015482806040019061201c9190613f56565b6060013514612060576040517f08c379a000000000000000000000000000000000000000000000000000000000815260040161205790613fc7565b60405180910390fd5b806005016040516120719190614081565b60405180910390208280604001906120899190613f56565b80602001906120989190614097565b6040516120a692919061411d565b6040518091039020146120ee576040517f08c379a00000000000000000000000000000000000000000000000000000000081526004016120e59061417f565b60405180910390fd5b80600601548280604001906121039190613f56565b608001351015612148576040517f08c379a000000000000000000000000000000000000000000000000000000000815260040161213f906141e7565b60405180910390fd5b6040518060400160405280600781526020017f5061796d656e7400000000000000000000000000000000000000000000000000815250805190602001208280604001906121959190613f56565b805f01906121a39190614097565b6040516121b192919061411d565b6040518091039020146121f9576040517f08c379a00000000000000000000000000000000000000000000000000000000081526004016121f09061424f565b60405180910390fd5b5f5f5f9054906101000a900473ffffffffffffffffffffffffffffffffffffffff1673ffffffffffffffffffffffffffffffffffffffff16630cacbfc9846040518263ffffffff1660e01b8152600401612253919061457b565b602060405180830381865afa15801561226e573d5f5f3e3d5ffd5b505050506040513d601f19601f8201168201806040525081019061229291906145c5565b9050806122d4576040517f08c379a00000000000000000000000000000000000000000000000000000000081526004016122cb90614660565b60405180910390fd5b6001826007015f6101000a81548160ff0219169083151502179055506001600e5f846001015f9054906101000a900473ffffffffffffffffffffffffffffffffffffffff1673ffffffffffffffffffffffffffffffffffffffff1673ffffffffffffffffffffffffffffffffffffffff1681526020019081526020015f205f846002015f9054906101000a900473ffffffffffffffffffffffffffffffffffffffff1673ffffffffffffffffffffffffffffffffffffffff1673ffffffffffffffffffffffffffffffffffffffff1681526020019081526020015f205f6101000a81548160ff0219169083151502179055505f6005836005016040516123da91906146fe565b90815260200160405180910390205f9054906101000a900473ffffffffffffffffffffffffffffffffffffffff1690505f84806040019061241b9190613f56565b6080013590505f73ffffffffffffffffffffffffffffffffffffffff168273ffffffffffffffffffffffffffffffffffffffff16146124e0578173ffffffffffffffffffffffffffffffffffffffff166340c10f19856002015f9054906101000a900473ffffffffffffffffffffffffffffffffffffffff16836040518363ffffffff1660e01b81526004016124b2929190614714565b5f604051808303815f87803b1580156124c9575f5ffd5b505af11580156124db573d5f5f3e3d5ffd5b505050505b857ff3a5044073ddf2586ea1b3ee717d1fb4da173aa5415846208b789e2ed467d92d8680604001906125129190613f56565b604001358780604001906125269190613f56565b608001358460405161253a9392919061473b565b60405180910390a2505050505050565b600b5481565b6004818051602081018201805184825260208301602085012081835280955050505050505f915054906101000a900460ff1681565b5f604051905090565b5f5ffd5b5f5ffd5b5f819050919050565b6125a881612596565b81146125b2575f5ffd5b50565b5f813590506125c38161259f565b92915050565b5f5ffd5b5f5ffd5b5f5ffd5b5f5f83601f8401126125ea576125e96125c9565b5b8235905067ffffffffffffffff811115612607576126066125cd565b5b602083019150836001820283011115612623576126226125d1565b5b9250929050565b5f819050919050565b61263c8161262a565b8114612646575f5ffd5b50565b5f8135905061265781612633565b92915050565b5f5f5f5f606085870312156126755761267461258e565b5b5f612682878288016125b5565b945050602085013567ffffffffffffffff8111156126a3576126a2612592565b5b6126af878288016125d5565b935093505060406126c287828801612649565b91505092959194509250565b6126d781612596565b82525050565b5f6020820190506126f05f8301846126ce565b92915050565b5f73ffffffffffffffffffffffffffffffffffffffff82169050919050565b5f819050919050565b5f61273861273361272e846126f6565b612715565b6126f6565b9050919050565b5f6127498261271e565b9050919050565b5f61275a8261273f565b9050919050565b61276a81612750565b82525050565b5f6020820190506127835f830184612761565b92915050565b5f612793826126f6565b9050919050565b6127a381612789565b81146127ad575f5ffd5b50565b5f813590506127be8161279a565b92915050565b5f602082840312156127d9576127d861258e565b5b5f6127e6848285016127b0565b91505092915050565b5f81519050919050565b5f82825260208201905092915050565b5f819050602082019050919050565b61282181612596565b82525050565b61283081612789565b82525050565b5f60ff82169050919050565b61284b81612836565b82525050565b5f81519050919050565b5f82825260208201905092915050565b8281835e5f83830152505050565b5f601f19601f8301169050919050565b5f61289382612851565b61289d818561285b565b93506128ad81856020860161286b565b6128b681612879565b840191505092915050565b5f60c083015f8301516128d65f860182612818565b5060208301516128e96020860182612827565b5060408301516128fc6040860182612827565b50606083015161290f6060860182612842565b50608083015184820360808601526129278282612889565b91505060a083015161293c60a0860182612818565b508091505092915050565b5f61295283836128c1565b905092915050565b5f602082019050919050565b5f612970826127ef565b61297a81856127f9565b93508360208202850161298c85612809565b805f5b858110156129c757848403895281516129a88582612947565b94506129b38361295a565b925060208a0199505060018101905061298f565b50829750879550505050505092915050565b5f6020820190508181035f8301526129f18184612966565b905092915050565b5f612a038261273f565b9050919050565b612a13816129f9565b82525050565b5f602082019050612a2c5f830184612a0a565b92915050565b5f60208284031215612a4757612a4661258e565b5b5f612a5484828501612649565b91505092915050565b5f60208284031215612a7257612a7161258e565b5b5f612a7f848285016125b5565b91505092915050565b612a9181612789565b82525050565b612aa08161262a565b82525050565b5f82825260208201905092915050565b5f612ac082612851565b612aca8185612aa6565b9350612ada81856020860161286b565b612ae381612879565b840191505092915050565b5f8115159050919050565b612b0281612aee565b82525050565b5f61010082019050612b1c5f83018b6126ce565b612b29602083018a612a88565b612b366040830189612a88565b612b4360608301886126ce565b612b506080830187612a97565b81810360a0830152612b628186612ab6565b9050612b7160c08301856126ce565b612b7e60e0830184612af9565b9998505050505050505050565b612b9481612836565b8114612b9e575f5ffd5b50565b5f81359050612baf81612b8b565b92915050565b5f5f5f5f60608587031215612bcd57612bcc61258e565b5b5f612bda878288016127b0565b9450506020612beb87828801612ba1565b935050604085013567ffffffffffffffff811115612c0c57612c0b612592565b5b612c18878288016125d5565b925092505092959194509250565b5f5ffd5b7f4e487b71000000000000000000000000000000000000000000000000000000005f52604160045260245ffd5b612c6082612879565b810181811067ffffffffffffffff82111715612c7f57612c7e612c2a565b5b80604052505050565b5f612c91612585565b9050612c9d8282612c57565b919050565b5f67ffffffffffffffff821115612cbc57612cbb612c2a565b5b612cc582612879565b9050602081019050919050565b828183375f83830152505050565b5f612cf2612ced84612ca2565b612c88565b905082815260208101848484011115612d0e57612d0d612c26565b5b612d19848285612cd2565b509392505050565b5f82601f830112612d3557612d346125c9565b5b8135612d45848260208601612ce0565b91505092915050565b5f60208284031215612d6357612d6261258e565b5b5f82013567ffffffffffffffff811115612d8057612d7f612592565b5b612d8c84828501612d21565b91505092915050565b5f7fffffffffffffffffffffffffffffffffffffffffff000000000000000000000082169050919050565b612dc981612d95565b82525050565b5f602082019050612de25f830184612dc0565b92915050565b5f815f0b9050919050565b612dfc81612de8565b82525050565b5f604082019050612e155f8301856126ce565b612e226020830184612df3565b9392505050565b5f602082019050612e3c5f830184612a88565b92915050565b5f5f5f60408486031215612e5957612e5861258e565b5b5f84013567ffffffffffffffff811115612e7657612e75612592565b5b612e82868287016125d5565b93509350506020612e95868287016127b0565b9150509250925092565b5f5f60408385031215612eb557612eb461258e565b5b5f612ec2858286016127b0565b9250506020612ed3858286016127b0565b9150509250929050565b5f602082019050612ef05f830184612af9565b92915050565b5f5f60408385031215612f0c57612f0b61258e565b5b5f612f19858286016127b0565b9250506020612f2a858286016125b5565b9150509250929050565b612f3d81612836565b82525050565b5f60c082019050612f565f8301896126ce565b612f636020830188612a88565b612f706040830187612a88565b612f7d6060830186612f34565b8181036080830152612f8f8185612ab6565b9050612f9e60a08301846126ce565b979650505050505050565b5f612fb38261273f565b9050919050565b612fc381612fa9565b82525050565b5f602082019050612fdc5f830184612fba565b92915050565b7f4e487b71000000000000000000000000000000000000000000000000000000005f52602160045260245ffd5b600281106130205761301f612fe2565b5b50565b5f8190506130308261300f565b919050565b5f61303f82613023565b9050919050565b61304f81613035565b82525050565b5f610100820190506130695f83018b6126ce565b613076602083018a612a88565b81810360408301526130888189612ab6565b9050818103606083015261309c8188612ab6565b90506130ab60808301876126ce565b81810360a08301526130bd8186612ab6565b90506130cc60c0830185613046565b6130d960e0830184612af9565b9998505050505050505050565b600281106130f2575f5ffd5b50565b5f81359050613103816130e6565b92915050565b5f5f5f5f5f5f5f5f60a0898b0312156131255761312461258e565b5b5f89013567ffffffffffffffff81111561314257613141612592565b5b61314e8b828c016125d5565b9850985050602089013567ffffffffffffffff81111561317157613170612592565b5b61317d8b828c016125d5565b965096505060406131908b828c016125b5565b945050606089013567ffffffffffffffff8111156131b1576131b0612592565b5b6131bd8b828c016125d5565b935093505060806131d08b828c016130f5565b9150509295985092959890939650565b5f5ffd5b5f606082840312156131f9576131f86131e0565b5b81905092915050565b5f5f604083850312156132185761321761258e565b5b5f613225858286016125b5565b925050602083013567ffffffffffffffff81111561324657613245612592565b5b613252858286016131e4565b9150509250929050565b5f60208201905061326f5f830184612f34565b92915050565b7f4e487b71000000000000000000000000000000000000000000000000000000005f52602260045260245ffd5b5f60028204905060018216806132b957607f821691505b6020821081036132cc576132cb613275565b5b50919050565b7f4c697374696e6720646f6573206e6f74206578697374000000000000000000005f82015250565b5f613306601683612aa6565b9150613311826132d2565b602082019050919050565b5f6020820190508181035f830152613333816132fa565b9050919050565b7f4c697374696e6720697320696e616374697665000000000000000000000000005f82015250565b5f61336e601383612aa6565b91506133798261333a565b602082019050919050565b5f6020820190508181035f83015261339b81613362565b9050919050565b7f5061796d656e74207265666572656e636520616c7265616479206578697374735f82015250565b5f6133d6602083612aa6565b91506133e1826133a2565b602082019050919050565b5f6020820190508181035f830152613403816133ca565b9050919050565b7f496e76616c6964206f7261636c652070726963650000000000000000000000005f82015250565b5f61343e601483612aa6565b91506134498261340a565b602082019050919050565b5f6020820190508181035f83015261346b81613432565b9050919050565b5f81905092915050565b5f6134878385613472565b9350613494838584612cd2565b82840190509392505050565b5f6134ac82848661347c565b91508190509392505050565b7f556e737570706f727465642063757272656e637920646563696d616c730000005f82015250565b5f6134ec601d83612aa6565b91506134f7826134b8565b602082019050919050565b5f6020820190508181035f830152613519816134e0565b9050919050565b7f4e487b71000000000000000000000000000000000000000000000000000000005f52601160045260245ffd5b5f61355782612596565b915061356283612596565b925082820261357081612596565b9150828204841483151761358757613586613520565b5b5092915050565b5f8160011c9050919050565b5f5f8291508390505b60018511156135e3578086048111156135bf576135be613520565b5b60018516156135ce5780820291505b80810290506135dc8561358e565b94506135a3565b94509492505050565b5f826135fb57600190506136b6565b81613608575f90506136b6565b816001811461361e576002811461362857613657565b60019150506136b6565b60ff84111561363a57613639613520565b5b8360020a91508482111561365157613650613520565b5b506136b6565b5060208310610133831016604e8410600b841016171561368c5782820a90508381111561368757613686613520565b5b6136b6565b613699848484600161359a565b925090508184048111156136b0576136af613520565b5b81810290505b9392505050565b5f6136c782612596565b91506136d283612836565b92506136ff7fffffffffffffffffffffffffffffffffffffffffffffffffffffffffffffffff84846135ec565b905092915050565b7f4e487b71000000000000000000000000000000000000000000000000000000005f52601260045260245ffd5b5f61373e82612596565b915061374983612596565b92508261375957613758613707565b5b828204905092915050565b5f61376e82612596565b91507fffffffffffffffffffffffffffffffffffffffffffffffffffffffffffffffff82036137a05761379f613520565b5b600182019050919050565b5f819050815f5260205f209050919050565b5f6020601f8301049050919050565b5f82821b905092915050565b5f600883026138077fffffffffffffffffffffffffffffffffffffffffffffffffffffffffffffffff826137cc565b61381186836137cc565b95508019841693508086168417925050509392505050565b5f61384361383e61383984612596565b612715565b612596565b9050919050565b5f819050919050565b61385c83613829565b6138706138688261384a565b8484546137d8565b825550505050565b5f5f905090565b613887613878565b613892818484613853565b505050565b5f5b828110156138b8576138ad5f82840161387f565b600181019050613899565b505050565b601f82111561390b578282111561390a576138d7816137ab565b6138e0836137bd565b6138e9856137bd565b60208610156138f6575f90505b80830161390582840382613897565b505050505b5b505050565b5f82821c905092915050565b5f61392b5f1984600802613910565b1980831691505092915050565b5f613943838361391c565b9150826002028217905092915050565b61395c82612851565b67ffffffffffffffff81111561397557613974612c2a565b5b61397f82546132a2565b61398a8282856138bd565b5f60209050601f8311600181146139bb575f84156139a9578287015190505b6139b38582613938565b865550613a1a565b601f1984166139c9866137ab565b5f5b828110156139f0578489015182556001820191506020850194506020810190506139cb565b86831015613a0d5784890151613a09601f89168261391c565b8355505b6001600288020188555050505b505050505050565b5f613a2d8385612aa6565b9350613a3a838584612cd2565b613a4383612879565b840190509392505050565b5f608082019050613a615f8301886126ce565b8181036020830152613a74818688613a22565b9050613a8360408301856126ce565b613a906060830184612a97565b9695505050505050565b7f526174696e67206d757374206265206265747765656e203120616e64203520465f8201527f6c61726974792053746172730000000000000000000000000000000000000000602082015250565b5f613af4602c83612aa6565b9150613aff82613a9a565b604082019050919050565b5f6020820190508181035f830152613b2181613ae8565b9050919050565b7f4f6e6c79207665726966696564206275796572732063616e20726576696577005f82015250565b5f613b5c601f83612aa6565b9150613b6782613b28565b602082019050919050565b5f6020820190508181035f830152613b8981613b50565b9050919050565b5f613b9a82612596565b9150613ba583612596565b9250828201905080821115613bbd57613bbc613520565b5b92915050565b5f604082019050613bd65f830186612f34565b8181036020830152613be9818486613a22565b9050949350505050565b5f613bfd82612851565b613c078185613472565b9350613c1781856020860161286b565b80840191505092915050565b5f613c2e8284613bf3565b915081905092915050565b7f556e737570706f727465642070726963652066656564000000000000000000005f82015250565b5f613c6d601683612aa6565b9150613c7882613c39565b602082019050919050565b5f6020820190508181035f830152613c9a81613c61565b9050919050565b5f81519050613caf8161259f565b92915050565b613cbe81612de8565b8114613cc8575f5ffd5b50565b5f81519050613cd981613cb5565b92915050565b5f67ffffffffffffffff82169050919050565b613cfb81613cdf565b8114613d05575f5ffd5b50565b5f81519050613d1681613cf2565b92915050565b5f5f5f60608486031215613d3357613d3261258e565b5b5f613d4086828701613ca1565b9350506020613d5186828701613ccb565b9250506040613d6286828701613d08565b9150509250925092565b7f4f6e6c79206f776e65722063616e2065786563757465207468697300000000005f82015250565b5f613da0601b83612aa6565b9150613dab82613d6c565b602082019050919050565b5f6020820190508181035f830152613dcd81613d94565b9050919050565b7f5072696365206d75737420626520706f736974697665000000000000000000005f82015250565b5f613e08601683612aa6565b9150613e1382613dd4565b602082019050919050565b5f6020820190508181035f830152613e3581613dfc565b9050919050565b5f6060820190508181035f830152613e55818688613a22565b9050613e6460208301856126ce565b613e716040830184613046565b95945050505050565b7f496e766f69636520646f6573206e6f74206578697374000000000000000000005f82015250565b5f613eae601683612aa6565b9150613eb982613e7a565b602082019050919050565b5f6020820190508181035f830152613edb81613ea2565b9050919050565b7f496e766f69636520616c726561647920736574746c65640000000000000000005f82015250565b5f613f16601783612aa6565b9150613f2182613ee2565b602082019050919050565b5f6020820190508181035f830152613f4381613f0a565b9050919050565b5f5ffd5b5f5ffd5b5f5ffd5b5f8235600160c003833603038112613f7157613f70613f4a565b5b80830191505092915050565b7f5061796d656e74207265666572656e6365206d69736d617463680000000000005f82015250565b5f613fb1601a83612aa6565b9150613fbc82613f7d565b602082019050919050565b5f6020820190508181035f830152613fde81613fa5565b9050919050565b5f81905092915050565b5f819050815f5260205f209050919050565b5f815461400d816132a2565b6140178186613fe5565b9450600182165f8114614031576001811461404657614078565b60ff1983168652811515820286019350614078565b61404f85613fef565b5f5b8381101561407057815481890152600182019150602081019050614051565b838801955050505b50505092915050565b5f61408c8284614001565b915081905092915050565b5f5f833560016020038436030381126140b3576140b2613f4a565b5b80840192508235915067ffffffffffffffff8211156140d5576140d4613f4e565b5b6020830192506001820236038313156140f1576140f0613f52565b5b509250929050565b5f6141048385613fe5565b9350614111838584612cd2565b82840190509392505050565b5f6141298284866140f9565b91508190509392505050565b7f43757272656e637920636861696e206d69736d617463680000000000000000005f82015250565b5f614169601783612aa6565b915061417482614135565b602082019050919050565b5f6020820190508181035f8301526141968161415d565b9050919050565b7f5061696420616d6f756e7420697320696e73756666696369656e7400000000005f82015250565b5f6141d1601b83612aa6565b91506141dc8261419d565b602082019050919050565b5f6020820190508181035f8301526141fe816141c5565b9050919050565b7f496e76616c6964206174746573746174696f6e207479706500000000000000005f82015250565b5f614239601883612aa6565b915061424482614205565b602082019050919050565b5f6020820190508181035f8301526142668161422d565b9050919050565b5f61427b6020840184612649565b905092915050565b61428c8161262a565b82525050565b5f5ffd5b5f5ffd5b5f5ffd5b5f5f833560016020038436030381126142ba576142b961429a565b5b83810192508235915060208301925067ffffffffffffffff8211156142e2576142e1614292565b5b6020820236038313156142f8576142f7614296565b5b509250929050565b5f82825260208201905092915050565b5f5ffd5b82818337505050565b5f6143288385614300565b93507f07ffffffffffffffffffffffffffffffffffffffffffffffffffffffffffffff83111561435b5761435a614310565b5b60208302925061436c838584614314565b82840190509392505050565b5f8235600160c0038336030381126143935761439261429a565b5b82810191505092915050565b5f5f833560016020038436030381126143bb576143ba61429a565b5b83810192508235915060208301925067ffffffffffffffff8211156143e3576143e2614292565b5b6001820236038313156143f9576143f8614296565b5b509250929050565b5f61440c838561285b565b9350614419838584612cd2565b61442283612879565b840190509392505050565b5f61443b60208401846125b5565b905092915050565b5f60c083016144545f84018461439f565b8583035f870152614466838284614401565b92505050614477602084018461439f565b858303602087015261448a838284614401565b9250505061449b604084018461426d565b6144a86040860182614283565b506144b6606084018461426d565b6144c36060860182614283565b506144d1608084018461442d565b6144de6080860182612818565b506144ec60a084018461439f565b85830360a08701526144ff838284614401565b925050508091505092915050565b5f6060830161451e5f84018461426d565b61452a5f860182614283565b50614538602084018461429e565b858303602087015261454b83828461431d565b9250505061455c6040840184614378565b848203604086015261456e8282614443565b9150508091505092915050565b5f6020820190508181035f830152614593818461450d565b905092915050565b6145a481612aee565b81146145ae575f5ffd5b50565b5f815190506145bf8161459b565b92915050565b5f602082840312156145da576145d961258e565b5b5f6145e7848285016145b1565b91505092915050565b7f464443206174746573746174696f6e2070726f6f6620766572696669636174695f8201527f6f6e206661696c65640000000000000000000000000000000000000000000000602082015250565b5f61464a602983612aa6565b9150614655826145f0565b604082019050919050565b5f6020820190508181035f8301526146778161463e565b9050919050565b5f815461468a816132a2565b6146948186613472565b9450600182165f81146146ae57600181146146c3576146f5565b60ff19831686528115158202860193506146f5565b6146cc856137ab565b5f5b838110156146ed578154818901526001820191506020810190506146ce565b838801955050505b50505092915050565b5f614709828461467e565b915081905092915050565b5f6040820190506147275f830185612a88565b61473460208301846126ce565b9392505050565b5f60608201905061474e5f830186612a97565b61475b60208301856126ce565b61476860408301846126ce565b94935050505056fea26469706673582212200ea7826719f25be2c2c239304983c4703282d55d5e7afb25a142c0044013a4b764736f6c63430008230033","linkReferences":{}},"methodIdentifiers":{"createInvoice(uint256,string,bytes32)":"008f248b","fAssets(string)":"dbeca2a0","fdcVerification()":"3ad6d516","ftsoFeeds(string)":"60a04c77","ftsoV2()":"25e89883","getLivePrice(string)":"86981478","getReviewsCount(address)":"c95de391","getSellerReviews(address)":"2f2131d1","hasPurchasedFrom(address,address)":"b5ccb437","invoiceCount()":"1346f0c4","invoices(uint256)":"4e6d1405","listItem(string,string,uint256,string,uint8)":"dea88770","listingCount()":"a9b07c26","listings(uint256)":"de74e57b","merchantWallet()":"bc85e064","owner()":"8da5cb5b","referenceToInvoiceId(bytes32)":"4cfa2b24","reviewCount()":"eff5924f","sellerRatingSums(address)":"62e39d1c","sellerReviews(address,uint256)":"cf7d0168","setFAsset(string,address)":"a6883929","setFdcVerification(address)":"e443147f","setMerchantWallet(address)":"ddda66db","settlePayment(uint256,(bytes32,bytes32[],(string,string,bytes32,bytes32,uint256,string)))":"e66c64b9","submitReview(address,uint8,string)":"55495f1f","tokenDecimals(string)":"f454fd9b"},"id":19}