{"abi":[{"type":"constructor","inputs":[{"name":"_ftsoV2","type":"address","internalType":"address"},{"name":"_fdcVerification","type":"address","internalType":"address"},{"name":"_merchantWallet","type":"address","internalType":"address"}],"stateMutability":"nonpayable"},{"type":"function","name":"createInvoice","inputs":[{"name":"_listingId","type":"uint256","internalType":"uint256"},{"name":"_currency","type":"string","internalType":"string"},{"name":"_paymentReference","type":"bytes32","internalType":"bytes32"}],"outputs":[{"name":"invoiceId","type":"uint256","internalType":"uint256"}],"stateMutability":"nonpayable"},{"type":"function","name":"deleteListing","inputs":[{"name":"_listingId","type":"uint256","internalType":"uint256"}],"outputs":[],"stateMutability":"nonpayable"},{"type":"function","name":"editListing","inputs":[{"name":"_listingId","type":"uint256","internalType":"uint256"},{"name":"_title","type":"string","internalType":"string"},{"name":"_description","type":"string","internalType":"string"},{"name":"_priceUSD","type":"uint256","internalType":"uint256"},{"name":"_imageUrl","type":"string","internalType":"string"},{"name":"_listingType","type":"uint8","internalType":"enum FlarityMerchantGateway.ListingType"},{"name":"_active","type":"bool","internalType":"bool"}],"outputs":[],"stateMutability":"nonpayable"},{"type":"function","name":"fAssets","inputs":[{"name":"","type":"string","internalType":"string"}],"outputs":[{"name":"","type":"address","internalType":"contract MockFAsset"}],"stateMutability":"view"},{"type":"function","name":"fdcVerification","inputs":[],"outputs":[{"name":"","type":"address","internalType":"contract IPaymentVerification"}],"stateMutability":"view"},{"type":"function","name":"ftsoFeeds","inputs":[{"name":"","type":"string","internalType":"string"}],"outputs":[{"name":"","type":"bytes21","internalType":"bytes21"}],"stateMutability":"view"},{"type":"function","name":"ftsoV2","inputs":[],"outputs":[{"name":"","type":"address","internalType":"contract IFtsoV2"}],"stateMutability":"view"},{"type":"function","name":"getLivePrice","inputs":[{"name":"_ticker","type":"string","internalType":"string"}],"outputs":[{"name":"price","type":"uint256","internalType":"uint256"},{"name":"decimals","type":"int8","internalType":"int8"}],"stateMutability":"view"},{"type":"function","name":"getReviewsCount","inputs":[{"name":"_seller","type":"address","internalType":"address"}],"outputs":[{"name":"","type":"uint256","internalType":"uint256"}],"stateMutability":"view"},{"type":"function","name":"getSellerReviews","inputs":[{"name":"_seller","type":"address","internalType":"address"}],"outputs":[{"name":"","type":"tuple[]","internalType":"struct FlarityMerchantGateway.Review[]","components":[{"name":"id","type":"uint256","internalType":"uint256"},{"name":"seller","type":"address","internalType":"address"},{"name":"buyer","type":"address","internalType":"address"},{"name":"rating","type":"uint8","internalType":"uint8"},{"name":"comment","type":"string","internalType":"string"},{"name":"timestamp","type":"uint256","internalType":"uint256"}]}],"stateMutability":"view"},{"type":"function","name":"hasPurchasedFrom","inputs":[{"name":"","type":"address","internalType":"address"},{"name":"","type":"address","internalType":"address"}],"outputs":[{"name":"","type":"bool","internalType":"bool"}],"stateMutability":"view"},{"type":"function","name":"invoiceCount","inputs":[],"outputs":[{"name":"","type":"uint256","internalType":"uint256"}],"stateMutability":"view"},{"type":"function","name":"invoices","inputs":[{"name":"","type":"uint256","internalType":"uint256"}],"outputs":[{"name":"id","type":"uint256","internalType":"uint256"},{"name":"buyer","type":"address","internalType":"address"},{"name":"seller","type":"address","internalType":"address"},{"name":"amountUSD","type":"uint256","internalType":"uint256"},{"name":"paymentReference","type":"bytes32","internalType":"bytes32"},{"name":"currency","type":"string","internalType":"string"},{"name":"amountCrypto","type":"uint256","internalType":"uint256"},{"name":"settled","type":"bool","internalType":"bool"}],"stateMutability":"view"},{"type":"function","name":"listItem","inputs":[{"name":"_title","type":"string","internalType":"string"},{"name":"_description","type":"string","internalType":"string"},{"name":"_priceUSD","type":"uint256","internalType":"uint256"},{"name":"_imageUrl","type":"string","internalType":"string"},{"name":"_listingType","type":"uint8","internalType":"enum FlarityMerchantGateway.ListingType"}],"outputs":[{"name":"listingId","type":"uint256","internalType":"uint256"}],"stateMutability":"nonpayable"},{"type":"function","name":"listingCount","inputs":[],"outputs":[{"name":"","type":"uint256","internalType":"uint256"}],"stateMutability":"view"},{"type":"function","name":"listings","inputs":[{"name":"","type":"uint256","internalType":"uint256"}],"outputs":[{"name":"id","type":"uint256","internalType":"uint256"},{"name":"seller","type":"address","internalType":"address"},{"name":"title","type":"string","internalType":"string"},{"name":"description","type":"string","internalType":"string"},{"name":"priceUSD","type":"uint256","internalType":"uint256"},{"name":"imageUrl","type":"string","internalType":"string"},{"name":"listingType","type":"uint8","internalType":"enum FlarityMerchantGateway.ListingType"},{"name":"active","type":"bool","internalType":"bool"}],"stateMutability":"view"},{"type":"function","name":"merchantWallet","inputs":[],"outputs":[{"name":"","type":"address","internalType":"address"}],"stateMutability":"view"},{"type":"function","name":"owner","inputs":[],"outputs":[{"name":"","type":"address","internalType":"address"}],"stateMutability":"view"},{"type":"function","name":"referenceToInvoiceId","inputs":[{"name":"","type":"bytes32","internalType":"bytes32"}],"outputs":[{"name":"","type":"uint256","internalType":"uint256"}],"stateMutability":"view"},{"type":"function","name":"reviewCount","inputs":[],"outputs":[{"name":"","type":"uint256","internalType":"uint256"}],"stateMutability":"view"},{"type":"function","name":"sellerRatingSums","inputs":[{"name":"","type":"address","internalType":"address"}],"outputs":[{"name":"","type":"uint256","internalType":"uint256"}],"stateMutability":"view"},{"type":"function","name":"sellerReviews","inputs":[{"name":"","type":"address","internalType":"address"},{"name":"","type":"uint256","internalType":"uint256"}],"outputs":[{"name":"id","type":"uint256","internalType":"uint256"},{"name":"seller","type":"address","internalType":"address"},{"name":"buyer","type":"address","internalType":"address"},{"name":"rating","type":"uint8","internalType":"uint8"},{"name":"comment","type":"string","internalType":"string"},{"name":"timestamp","type":"uint256","internalType":"uint256"}],"stateMutability":"view"},{"type":"function","name":"setFAsset","inputs":[{"name":"_ticker","type":"string","internalType":"string"},{"name":"_fAssetAddress","type":"address","internalType":"address"}],"outputs":[],"stateMutability":"nonpayable"},{"type":"function","name":"setFdcVerification","inputs":[{"name":"_fdcVerification","type":"address","internalType":"address"}],"outputs":[],"stateMutability":"nonpayable"},{"type":"function","name":"setMerchantWallet","inputs":[{"name":"_merchantWallet","type":"address","internalType":"address"}],"outputs":[],"stateMutability":"nonpayable"},{"type":"function","name":"settlePayment","inputs":[{"name":"_invoiceId","type":"uint256","internalType":"uint256"},{"name":"_proof","type":"tuple","internalType":"struct IPaymentVerification.Proof","components":[{"name":"merkleRoot","type":"bytes32","internalType":"bytes32"},{"name":"merkleProof","type":"bytes32[]","internalType":"bytes32[]"},{"name":"requestBody","type":"tuple","internalType":"struct IPaymentVerification.RequestBody","components":[{"name":"attestationType","type":"string","internalType":"string"},{"name":"sourceId","type":"string","internalType":"string"},{"name":"transactionId","type":"bytes32","internalType":"bytes32"},{"name":"paymentReference","type":"bytes32","internalType":"bytes32"},{"name":"amount","type":"uint256","internalType":"uint256"},{"name":"receivingAddress","type":"string","internalType":"string"}]}]}],"outputs":[],"stateMutability":"nonpayable"},{"type":"function","name":"submitReview","inputs":[{"name":"_seller","type":"address","internalType":"address"},{"name":"_rating","type":"uint8","internalType":"uint8"},{"name":"_comment","type":"string","internalType":"string"}],"outputs":[],"stateMutability":"nonpayable"},{"type":"function","name":"tokenDecimals","inputs":[{"name":"","type":"string","internalType":"string"}],"outputs":[{"name":"","type":"uint8","internalType":"uint8"}],"stateMutability":"view"},{"type":"event","name":"InvoiceCreated","inputs":[{"name":"invoiceId","type":"uint256","indexed":true,"internalType":"uint256"},{"name":"buyer","type":"address","indexed":true,"internalType":"address"},{"name":"seller","type":"address","indexed":true,"internalType":"address"},{"name":"amountUSD","type":"uint256","indexed":false,"internalType":"uint256"},{"name":"currency","type":"string","indexed":false,"internalType":"string"},{"name":"amountCrypto","type":"uint256","indexed":false,"internalType":"uint256"},{"name":"paymentReference","type":"bytes32","indexed":false,"internalType":"bytes32"}],"anonymous":false},{"type":"event","name":"ListingCreated","inputs":[{"name":"listingId","type":"uint256","indexed":true,"internalType":"uint256"},{"name":"seller","type":"address","indexed":true,"internalType":"address"},{"name":"title","type":"string","indexed":false,"internalType":"string"},{"name":"priceUSD","type":"uint256","indexed":false,"internalType":"uint256"},{"name":"listingType","type":"uint8","indexed":false,"internalType":"enum FlarityMerchantGateway.ListingType"}],"anonymous":false},{"type":"event","name":"ListingDeleted","inputs":[{"name":"listingId","type":"uint256","indexed":true,"internalType":"uint256"}],"anonymous":false},{"type":"event","name":"ListingUpdated","inputs":[{"name":"listingId","type":"uint256","indexed":true,"internalType":"uint256"},{"name":"title","type":"string","indexed":false,"internalType":"string"},{"name":"priceUSD","type":"uint256","indexed":false,"internalType":"uint256"},{"name":"active","type":"bool","indexed":false,"internalType":"bool"}],"anonymous":false},{"type":"event","name":"PaymentSettled","inputs":[{"name":"invoiceId","type":"uint256","indexed":true,"internalType":"uint256"},{"name":"transactionId","type":"bytes32","indexed":false,"internalType":"bytes32"},{"name":"amountPaid","type":"uint256","indexed":false,"internalType":"uint256"},{"name":"fassetsMinted","type":"uint256","indexed":false,"internalType":"uint256"}],"anonymous":false},{"type":"event","name":"ReviewSubmitted","inputs":[{"name":"reviewId","type":"uint256","indexed":true,"internalType":"uint256"},{"name":"seller","type":"address","indexed":true,"internalType":"address"},{"name":"buyer","type":"address","indexed":true,"internalType":"address"},{"name":"rating","type":"uint8","indexed":false,"internalType":"uint8"},{"name":"comment","type":"string","indexed":false,"internalType":"string"}],"anonymous":false}],"bytecode":{"object":"0x60a060405234801561000f575f5ffd5b50604051615439380380615439833981810160405281019061003191906103de565b3360015f6101000a81548173ffffffffffffffffffffffffffffffffffffffff021916908373ffffffffffffffffffffffffffffffffffffffff1602179055508273ffffffffffffffffffffffffffffffffffffffff1660808173ffffffffffffffffffffffffffffffffffffffff1681525050815f5f6101000a81548173ffffffffffffffffffffffffffffffffffffffff021916908373ffffffffffffffffffffffffffffffffffffffff1602179055508060025f6101000a81548173ffffffffffffffffffffffffffffffffffffffff021916908373ffffffffffffffffffffffffffffffffffffffff1602179055507401464c522f5553440000000000000000000000000060581b600360405161014b90610482565b90815260200160405180910390205f6101000a81548174ffffffffffffffffffffffffffffffffffffffffff021916908360581c021790555074014254432f5553440000000000000000000000000060581b60036040516101ab906104e0565b90815260200160405180910390205f6101000a81548174ffffffffffffffffffffffffffffffffffffffffff021916908360581c021790555074015852502f5553440000000000000000000000000060581b600360405161020b9061053e565b90815260200160405180910390205f6101000a81548174ffffffffffffffffffffffffffffffffffffffffff021916908360581c02179055507401444f47452f55534400000000000000000000000060581b600360405161026b9061059c565b90815260200160405180910390205f6101000a81548174ffffffffffffffffffffffffffffffffffffffffff021916908360581c0217905550601260046040516102b490610482565b90815260200160405180910390205f6101000a81548160ff021916908360ff160217905550600660046040516102e99061053e565b90815260200160405180910390205f6101000a81548160ff021916908360ff1602179055506008600460405161031e906104e0565b90815260200160405180910390205f6101000a81548160ff021916908360ff160217905550600860046040516103539061059c565b90815260200160405180910390205f6101000a81548160ff021916908360ff1602179055505050506105b0565b5f5ffd5b5f73ffffffffffffffffffffffffffffffffffffffff82169050919050565b5f6103ad82610384565b9050919050565b6103bd816103a3565b81146103c7575f5ffd5b50565b5f815190506103d8816103b4565b92915050565b5f5f5f606084860312156103f5576103f4610380565b5b5f610402868287016103ca565b9350506020610413868287016103ca565b9250506040610424868287016103ca565b9150509250925092565b5f81905092915050565b7f464c5200000000000000000000000000000000000000000000000000000000005f82015250565b5f61046c60038361042e565b915061047782610438565b600382019050919050565b5f61048c82610460565b9150819050919050565b7f42544300000000000000000000000000000000000000000000000000000000005f82015250565b5f6104ca60038361042e565b91506104d582610496565b600382019050919050565b5f6104ea826104be565b9150819050919050565b7f58525000000000000000000000000000000000000000000000000000000000005f82015250565b5f61052860038361042e565b9150610533826104f4565b600382019050919050565b5f6105488261051c565b9150819050919050565b7f444f4745000000000000000000000000000000000000000000000000000000005f82015250565b5f61058660048361042e565b915061059182610552565b600482019050919050565b5f6105a68261057a565b9150819050919050565b608051614e6a6105cf5f395f8181610d41015261156a0152614e6a5ff3fe608060405234801561000f575f5ffd5b50600436106101c1575f3560e01c8063b5ccb437116100f7578063de74e57b11610095578063e6282c6e1161006f578063e6282c6e14610589578063e66c64b9146105a5578063eff5924f146105c1578063f454fd9b146105df576101c1565b8063de74e57b14610506578063dea887701461053d578063e443147f1461056d576101c1565b8063c95de391116100d1578063c95de39114610455578063cf7d016814610485578063dbeca2a0146104ba578063ddda66db146104ea576101c1565b8063b5ccb437146103eb578063bc2fdc451461041b578063bc85e06414610437576101c1565b806355495f1f11610164578063869814781161013e57806386981478146103625780638da5cb5b14610393578063a6883929146103b1578063a9b07c26146103cd576101c1565b806355495f1f146102e657806360a04c771461030257806362e39d1c14610332576101c1565b80632f2131d1116101a05780632f2131d1146102315780633ad6d516146102615780634cfa2b241461027f5780634e6d1405146102af576101c1565b80628f248b146101c55780631346f0c4146101f557806325e8988314610213575b5f5ffd5b6101df60048036038101906101da9190612a05565b61060f565b6040516101ec9190612a85565b60405180910390f35b6101fd610d39565b60405161020a9190612a85565b60405180910390f35b61021b610d3f565b6040516102289190612b18565b60405180910390f35b61024b60048036038101906102469190612b6c565b610d63565b6040516102589190612d81565b60405180910390f35b610269610f66565b6040516102769190612dc1565b60405180910390f35b61029960048036038101906102949190612dda565b610f8a565b6040516102a69190612a85565b60405180910390f35b6102c960048036038101906102c49190612e05565b610f9f565b6040516102dd989796959493929190612eb0565b60405180910390f35b61030060048036038101906102fb9190612f5d565b6110b3565b005b61031c600480360381019061031791906130f6565b61148d565b6040516103299190613177565b60405180910390f35b61034c60048036038101906103479190612b6c565b6114c2565b6040516103599190612a85565b60405180910390f35b61037c600480360381019061037791906130f6565b6114d7565b60405161038a9291906131aa565b60405180910390f35b61039b61160f565b6040516103a891906131d1565b60405180910390f35b6103cb60048036038101906103c691906131ea565b611634565b005b6103d5611726565b6040516103e29190612a85565b60405180910390f35b61040560048036038101906104009190613247565b61172c565b6040516104129190613285565b60405180910390f35b610435600480360381019061043091906132eb565b611756565b005b61043f611959565b60405161044c91906131d1565b60405180910390f35b61046f600480360381019061046a9190612b6c565b61197e565b60405161047c9190612a85565b60405180910390f35b61049f600480360381019061049a91906133e8565b6119c7565b6040516104b196959493929190613435565b60405180910390f35b6104d460048036038101906104cf91906130f6565b611aea565b6040516104e191906134bb565b60405180910390f35b61050460048036038101906104ff9190612b6c565b611b32565b005b610520600480360381019061051b9190612e05565b611c04565b604051610534989796959493929190613547565b60405180910390f35b610557600480360381019061055291906135d8565b611e12565b6040516105649190612a85565b60405180910390f35b61058760048036038101906105829190612b6c565b6120fd565b005b6105a3600480360381019061059e9190612e05565b6121ce565b005b6105bf60048036038101906105ba91906136d1565b612305565b005b6105c96128f2565b6040516105d69190612a85565b60405180910390f35b6105f960048036038101906105f491906130f6565b6128f8565b604051610606919061372b565b60405180910390f35b5f5f60075f8781526020019081526020015f20604051806101000160405290815f8201548152602001600182015f9054906101000a900473ffffffffffffffffffffffffffffffffffffffff1673ffffffffffffffffffffffffffffffffffffffff1673ffffffffffffffffffffffffffffffffffffffff16815260200160028201805461069c90613771565b80601f01602080910402602001604051908101604052809291908181526020018280546106c890613771565b80156107135780601f106106ea57610100808354040283529160200191610713565b820191905f5260205f20905b8154815290600101906020018083116106f657829003601f168201915b5050505050815260200160038201805461072c90613771565b80601f016020809104026020016040519081016040528092919081815260200182805461075890613771565b80156107a35780601f1061077a576101008083540402835291602001916107a3565b820191905f5260205f20905b81548152906001019060200180831161078657829003601f168201915b50505050508152602001600482015481526020016005820180546107c690613771565b80601f01602080910402602001604051908101604052809291908181526020018280546107f290613771565b801561083d5780601f106108145761010080835404028352916020019161083d565b820191905f5260205f20905b81548152906001019060200180831161082057829003601f168201915b50505050508152602001600682015f9054906101000a900460ff16600181111561086a576108696134d4565b5b600181111561087c5761087b6134d4565b5b81526020016006820160019054906101000a900460ff16151515158152505090505f815f0151036108e2576040517f08c379a00000000000000000000000000000000000000000000000000000000081526004016108d9906137eb565b60405180910390fd5b8060e00151610926576040517f08c379a000000000000000000000000000000000000000000000000000000000815260040161091d90613853565b60405180910390fd5b5f600a5f8581526020019081526020015f205414610979576040517f08c379a0000000000000000000000000000000000000000000000000000000008152600401610970906138bb565b60405180910390fd5b5f5f6109c787878080601f0160208091040260200160405190810160405280939291908181526020018383808284375f81840152601f19601f820116905080830192505050505050506114d7565b915091505f8211610a0d576040517f08c379a0000000000000000000000000000000000000000000000000000000008152600401610a0490613923565b60405180910390fd5b5f60048888604051610a2092919061396f565b90815260200160405180910390205f9054906101000a900460ff1690505f8160ff1611610a82576040517f08c379a0000000000000000000000000000000000000000000000000000000008152600401610a79906139d1565b60405180910390fd5b5f670de0b6b3a764000084610a979190613a1c565b82600a610aa49190613b8c565b84600a610ab19190613b8c565b8760800151610ac09190613a1c565b610aca9190613a1c565b610ad49190613c03565b905060085f815480929190610ae890613c33565b919050555060085495506040518061010001604052808781526020013373ffffffffffffffffffffffffffffffffffffffff168152602001866020015173ffffffffffffffffffffffffffffffffffffffff168152602001866080015181526020018881526020018a8a8080601f0160208091040260200160405190810160405280939291908181526020018383808284375f81840152601f19601f8201169050808301925050505050505081526020018281526020015f151581525060095f8881526020019081526020015f205f820151815f01556020820151816001015f6101000a81548173ffffffffffffffffffffffffffffffffffffffff021916908373ffffffffffffffffffffffffffffffffffffffff1602179055506040820151816002015f6101000a81548173ffffffffffffffffffffffffffffffffffffffff021916908373ffffffffffffffffffffffffffffffffffffffff160217905550606082015181600301556080820151816004015560a0820151816005019081610c739190613e22565b5060c0820151816006015560e0820151816007015f6101000a81548160ff02191690831515021790555090505085600a5f8981526020019081526020015f2081905550846020015173ffffffffffffffffffffffffffffffffffffffff163373ffffffffffffffffffffffffffffffffffffffff16877fd05e937899919413d3fd1120b330b5104e7340fa1b22f4b2b4117addb5511b9388608001518d8d878e604051610d24959493929190613f1d565b60405180910390a45050505050949350505050565b60085481565b7f000000000000000000000000000000000000000000000000000000000000000081565b6060600c5f8373ffffffffffffffffffffffffffffffffffffffff1673ffffffffffffffffffffffffffffffffffffffff1681526020019081526020015f20805480602002602001604051908101604052809291908181526020015f905b82821015610f5b578382905f5260205f2090600502016040518060c00160405290815f8201548152602001600182015f9054906101000a900473ffffffffffffffffffffffffffffffffffffffff1673ffffffffffffffffffffffffffffffffffffffff1673ffffffffffffffffffffffffffffffffffffffff168152602001600282015f9054906101000a900473ffffffffffffffffffffffffffffffffffffffff1673ffffffffffffffffffffffffffffffffffffffff1673ffffffffffffffffffffffffffffffffffffffff1681526020016002820160149054906101000a900460ff1660ff1660ff168152602001600382018054610ec290613771565b80601f0160208091040260200160405190810160405280929190818152602001828054610eee90613771565b8015610f395780601f10610f1057610100808354040283529160200191610f39565b820191905f5260205f20905b815481529060010190602001808311610f1c57829003601f168201915b5050505050815260200160048201548152505081526020019060010190610dc1565b505050509050919050565b5f5f9054906101000a900473ffffffffffffffffffffffffffffffffffffffff1681565b600a602052805f5260405f205f915090505481565b6009602052805f5260405f205f91509050805f015490806001015f9054906101000a900473ffffffffffffffffffffffffffffffffffffffff1690806002015f9054906101000a900473ffffffffffffffffffffffffffffffffffffffff169080600301549080600401549080600501805461101a90613771565b80601f016020809104026020016040519081016040528092919081815260200182805461104690613771565b80156110915780601f1061106857610100808354040283529160200191611091565b820191905f5260205f20905b81548152906001019060200180831161107457829003601f168201915b505050505090806006015490806007015f9054906101000a900460ff16905088565b60018360ff16101580156110cb575060058360ff1611155b61110a576040517f08c379a000000000000000000000000000000000000000000000000000000000815260040161110190613fd9565b60405180910390fd5b600e5f3373ffffffffffffffffffffffffffffffffffffffff1673ffffffffffffffffffffffffffffffffffffffff1681526020019081526020015f205f8573ffffffffffffffffffffffffffffffffffffffff1673ffffffffffffffffffffffffffffffffffffffff1681526020019081526020015f205f9054906101000a900460ff166111ce576040517f08c379a00000000000000000000000000000000000000000000000000000000081526004016111c590614041565b60405180910390fd5b600b5f8154809291906111e090613c33565b91905055505f6040518060c00160405280600b5481526020018673ffffffffffffffffffffffffffffffffffffffff1681526020013373ffffffffffffffffffffffffffffffffffffffff1681526020018560ff16815260200184848080601f0160208091040260200160405190810160405280939291908181526020018383808284375f81840152601f19601f820116905080830192505050505050508152602001428152509050600c5f8673ffffffffffffffffffffffffffffffffffffffff1673ffffffffffffffffffffffffffffffffffffffff1681526020019081526020015f2081908060018154018082558091505060019003905f5260205f2090600502015f909190919091505f820151815f01556020820151816001015f6101000a81548173ffffffffffffffffffffffffffffffffffffffff021916908373ffffffffffffffffffffffffffffffffffffffff1602179055506040820151816002015f6101000a81548173ffffffffffffffffffffffffffffffffffffffff021916908373ffffffffffffffffffffffffffffffffffffffff16021790555060608201518160020160146101000a81548160ff021916908360ff16021790555060808201518160030190816113b79190613e22565b5060a0820151816004015550508360ff16600d5f8773ffffffffffffffffffffffffffffffffffffffff1673ffffffffffffffffffffffffffffffffffffffff1681526020019081526020015f205f828254611413919061405f565b925050819055503373ffffffffffffffffffffffffffffffffffffffff168573ffffffffffffffffffffffffffffffffffffffff16600b547f0d1d6b5fdcc269f15c3c023f437df57afaf129b821fdca9726533515f0717f2887878760405161147e93929190614092565b60405180910390a45050505050565b6003818051602081018201805184825260208301602085012081835280955050505050505f915054906101000a900460581b81565b600d602052805f5260405f205f915090505481565b5f5f5f6003846040516114ea91906140f2565b90815260200160405180910390205f9054906101000a900460581b90505f60581b6affffffffffffffffffffff1916816affffffffffffffffffffff191603611568576040517f08c379a000000000000000000000000000000000000000000000000000000000815260040161155f90614152565b60405180910390fd5b7f000000000000000000000000000000000000000000000000000000000000000073ffffffffffffffffffffffffffffffffffffffff166393e9f806826040518263ffffffff1660e01b81526004016115c19190613177565b606060405180830381865afa1580156115dc573d5f5f3e3d5ffd5b505050506040513d601f19601f8201168201806040525081019061160091906141eb565b50809350819450505050915091565b60015f9054906101000a900473ffffffffffffffffffffffffffffffffffffffff1681565b60015f9054906101000a900473ffffffffffffffffffffffffffffffffffffffff1673ffffffffffffffffffffffffffffffffffffffff163373ffffffffffffffffffffffffffffffffffffffff16146116c3576040517f08c379a00000000000000000000000000000000000000000000000000000000081526004016116ba90614285565b60405180910390fd5b80600584846040516116d692919061396f565b90815260200160405180910390205f6101000a81548173ffffffffffffffffffffffffffffffffffffffff021916908373ffffffffffffffffffffffffffffffffffffffff160217905550505050565b60065481565b600e602052815f5260405f20602052805f5260405f205f915091509054906101000a900460ff1681565b5f60075f8c81526020019081526020015f2090505f815f0154036117af576040517f08c379a00000000000000000000000000000000000000000000000000000000081526004016117a6906137eb565b60405180910390fd5b806001015f9054906101000a900473ffffffffffffffffffffffffffffffffffffffff1673ffffffffffffffffffffffffffffffffffffffff163373ffffffffffffffffffffffffffffffffffffffff1614611840576040517f08c379a0000000000000000000000000000000000000000000000000000000008152600401611837906142ed565b60405180910390fd5b5f8611611882576040517f08c379a000000000000000000000000000000000000000000000000000000000815260040161187990614355565b60405180910390fd5b898982600201918261189592919061437d565b5087878260030191826118a992919061437d565b5085816004018190555084848260050191826118c692919061437d565b5082816006015f6101000a81548160ff021916908360018111156118ed576118ec6134d4565b5b0217905550818160060160016101000a81548160ff0219169083151502179055508a7f2f26391d0ed1aa0b31b412f4a8460eecaef02db4e7b242a147b23de014568e5a8b8b8986604051611944949392919061444a565b60405180910390a25050505050505050505050565b60025f9054906101000a900473ffffffffffffffffffffffffffffffffffffffff1681565b5f600c5f8373ffffffffffffffffffffffffffffffffffffffff1673ffffffffffffffffffffffffffffffffffffffff1681526020019081526020015f20805490509050919050565b600c602052815f5260405f2081815481106119e0575f80fd5b905f5260205f2090600502015f9150915050805f015490806001015f9054906101000a900473ffffffffffffffffffffffffffffffffffffffff1690806002015f9054906101000a900473ffffffffffffffffffffffffffffffffffffffff16908060020160149054906101000a900460ff1690806003018054611a6390613771565b80601f0160208091040260200160405190810160405280929190818152602001828054611a8f90613771565b8015611ada5780601f10611ab157610100808354040283529160200191611ada565b820191905f5260205f20905b815481529060010190602001808311611abd57829003601f168201915b5050505050908060040154905086565b6005818051602081018201805184825260208301602085012081835280955050505050505f915054906101000a900473ffffffffffffffffffffffffffffffffffffffff1681565b60015f9054906101000a900473ffffffffffffffffffffffffffffffffffffffff1673ffffffffffffffffffffffffffffffffffffffff163373ffffffffffffffffffffffffffffffffffffffff1614611bc1576040517f08c379a0000000000000000000000000000000000000000000000000000000008152600401611bb890614285565b60405180910390fd5b8060025f6101000a81548173ffffffffffffffffffffffffffffffffffffffff021916908373ffffffffffffffffffffffffffffffffffffffff16021790555050565b6007602052805f5260405f205f91509050805f015490806001015f9054906101000a900473ffffffffffffffffffffffffffffffffffffffff1690806002018054611c4e90613771565b80601f0160208091040260200160405190810160405280929190818152602001828054611c7a90613771565b8015611cc55780601f10611c9c57610100808354040283529160200191611cc5565b820191905f5260205f20905b815481529060010190602001808311611ca857829003601f168201915b505050505090806003018054611cda90613771565b80601f0160208091040260200160405190810160405280929190818152602001828054611d0690613771565b8015611d515780601f10611d2857610100808354040283529160200191611d51565b820191905f5260205f20905b815481529060010190602001808311611d3457829003601f168201915b505050505090806004015490806005018054611d6c90613771565b80601f0160208091040260200160405190810160405280929190818152602001828054611d9890613771565b8015611de35780601f10611dba57610100808354040283529160200191611de3565b820191905f5260205f20905b815481529060010190602001808311611dc657829003601f168201915b505050505090806006015f9054906101000a900460ff16908060060160019054906101000a900460ff16905088565b5f5f8511611e55576040517f08c379a0000000000000000000000000000000000000000000000000000000008152600401611e4c90614355565b60405180910390fd5b60065f815480929190611e6790613c33565b919050555060065490506040518061010001604052808281526020013373ffffffffffffffffffffffffffffffffffffffff1681526020018a8a8080601f0160208091040260200160405190810160405280939291908181526020018383808284375f81840152601f19601f82011690508083019250505050505050815260200188888080601f0160208091040260200160405190810160405280939291908181526020018383808284375f81840152601f19601f82011690508083019250505050505050815260200186815260200185858080601f0160208091040260200160405190810160405280939291908181526020018383808284375f81840152601f19601f820116905080830192505050505050508152602001836001811115611f9357611f926134d4565b5b81526020016001151581525060075f8381526020019081526020015f205f820151815f01556020820151816001015f6101000a81548173ffffffffffffffffffffffffffffffffffffffff021916908373ffffffffffffffffffffffffffffffffffffffff16021790555060408201518160020190816120139190613e22565b5060608201518160030190816120299190613e22565b506080820151816004015560a08201518160050190816120499190613e22565b5060c0820151816006015f6101000a81548160ff02191690836001811115612074576120736134d4565b5b021790555060e08201518160060160016101000a81548160ff0219169083151502179055509050503373ffffffffffffffffffffffffffffffffffffffff16817fb1ab4850fee177de967c3668c249e45f68fb34111a3a931948634cf342dfe2488b8b89876040516120e99493929190614488565b60405180910390a398975050505050505050565b60015f9054906101000a900473ffffffffffffffffffffffffffffffffffffffff1673ffffffffffffffffffffffffffffffffffffffff163373ffffffffffffffffffffffffffffffffffffffff161461218c576040517f08c379a000000000000000000000000000000000000000000000000000000000815260040161218390614285565b60405180910390fd5b805f5f6101000a81548173ffffffffffffffffffffffffffffffffffffffff021916908373ffffffffffffffffffffffffffffffffffffffff16021790555050565b5f60075f8381526020019081526020015f2090505f815f015403612227576040517f08c379a000000000000000000000000000000000000000000000000000000000815260040161221e906137eb565b60405180910390fd5b806001015f9054906101000a900473ffffffffffffffffffffffffffffffffffffffff1673ffffffffffffffffffffffffffffffffffffffff163373ffffffffffffffffffffffffffffffffffffffff16146122b8576040517f08c379a00000000000000000000000000000000000000000000000000000000081526004016122af90614536565b60405180910390fd5b5f8160060160016101000a81548160ff021916908315150217905550817f8b21015f510e5f42785fad11aa75334f0f622f97504d8c498540b869d36b630860405160405180910390a25050565b5f60095f8481526020019081526020015f2090505f815f01540361235e576040517f08c379a00000000000000000000000000000000000000000000000000000000081526004016123559061459e565b60405180910390fd5b806007015f9054906101000a900460ff16156123af576040517f08c379a00000000000000000000000000000000000000000000000000000000081526004016123a690614606565b60405180910390fd5b80600401548280604001906123c49190614630565b6060013514612408576040517f08c379a00000000000000000000000000000000000000000000000000000000081526004016123ff906146a1565b60405180910390fd5b80600501604051612419919061475b565b60405180910390208280604001906124319190614630565b80602001906124409190614771565b60405161244e9291906147f7565b604051809103902014612496576040517f08c379a000000000000000000000000000000000000000000000000000000000815260040161248d90614859565b60405180910390fd5b80600601548280604001906124ab9190614630565b6080013510156124f0576040517f08c379a00000000000000000000000000000000000000000000000000000000081526004016124e7906148c1565b60405180910390fd5b6040518060400160405280600781526020017f5061796d656e74000000000000000000000000000000000000000000000000008152508051906020012082806040019061253d9190614630565b805f019061254b9190614771565b6040516125599291906147f7565b6040518091039020146125a1576040517f08c379a000000000000000000000000000000000000000000000000000000000815260040161259890614929565b60405180910390fd5b5f5f5f9054906101000a900473ffffffffffffffffffffffffffffffffffffffff1673ffffffffffffffffffffffffffffffffffffffff16630cacbfc9846040518263ffffffff1660e01b81526004016125fb9190614c55565b602060405180830381865afa158015612616573d5f5f3e3d5ffd5b505050506040513d601f19601f8201168201806040525081019061263a9190614c89565b90508061267c576040517f08c379a000000000000000000000000000000000000000000000000000000000815260040161267390614d24565b60405180910390fd5b6001826007015f6101000a81548160ff0219169083151502179055506001600e5f846001015f9054906101000a900473ffffffffffffffffffffffffffffffffffffffff1673ffffffffffffffffffffffffffffffffffffffff1673ffffffffffffffffffffffffffffffffffffffff1681526020019081526020015f205f846002015f9054906101000a900473ffffffffffffffffffffffffffffffffffffffff1673ffffffffffffffffffffffffffffffffffffffff1673ffffffffffffffffffffffffffffffffffffffff1681526020019081526020015f205f6101000a81548160ff0219169083151502179055505f6005836005016040516127829190614dc2565b90815260200160405180910390205f9054906101000a900473ffffffffffffffffffffffffffffffffffffffff1690505f8480604001906127c39190614630565b6080013590505f73ffffffffffffffffffffffffffffffffffffffff168273ffffffffffffffffffffffffffffffffffffffff1614612888578173ffffffffffffffffffffffffffffffffffffffff166340c10f19856002015f9054906101000a900473ffffffffffffffffffffffffffffffffffffffff16836040518363ffffffff1660e01b815260040161285a929190614dd8565b5f604051808303815f87803b158015612871575f5ffd5b505af1158015612883573d5f5f3e3d5ffd5b505050505b857ff3a5044073ddf2586ea1b3ee717d1fb4da173aa5415846208b789e2ed467d92d8680604001906128ba9190614630565b604001358780604001906128ce9190614630565b60800135846040516128e293929190614dff565b60405180910390a2505050505050565b600b5481565b6004818051602081018201805184825260208301602085012081835280955050505050505f915054906101000a900460ff1681565b5f604051905090565b5f5ffd5b5f5ffd5b5f819050919050565b6129508161293e565b811461295a575f5ffd5b50565b5f8135905061296b81612947565b92915050565b5f5ffd5b5f5ffd5b5f5ffd5b5f5f83601f84011261299257612991612971565b5b8235905067ffffffffffffffff8111156129af576129ae612975565b5b6020830191508360018202830111156129cb576129ca612979565b5b9250929050565b5f819050919050565b6129e4816129d2565b81146129ee575f5ffd5b50565b5f813590506129ff816129db565b92915050565b5f5f5f5f60608587031215612a1d57612a1c612936565b5b5f612a2a8782880161295d565b945050602085013567ffffffffffffffff811115612a4b57612a4a61293a565b5b612a578782880161297d565b93509350506040612a6a878288016129f1565b91505092959194509250565b612a7f8161293e565b82525050565b5f602082019050612a985f830184612a76565b92915050565b5f73ffffffffffffffffffffffffffffffffffffffff82169050919050565b5f819050919050565b5f612ae0612adb612ad684612a9e565b612abd565b612a9e565b9050919050565b5f612af182612ac6565b9050919050565b5f612b0282612ae7565b9050919050565b612b1281612af8565b82525050565b5f602082019050612b2b5f830184612b09565b92915050565b5f612b3b82612a9e565b9050919050565b612b4b81612b31565b8114612b55575f5ffd5b50565b5f81359050612b6681612b42565b92915050565b5f60208284031215612b8157612b80612936565b5b5f612b8e84828501612b58565b91505092915050565b5f81519050919050565b5f82825260208201905092915050565b5f819050602082019050919050565b612bc98161293e565b82525050565b612bd881612b31565b82525050565b5f60ff82169050919050565b612bf381612bde565b82525050565b5f81519050919050565b5f82825260208201905092915050565b8281835e5f83830152505050565b5f601f19601f8301169050919050565b5f612c3b82612bf9565b612c458185612c03565b9350612c55818560208601612c13565b612c5e81612c21565b840191505092915050565b5f60c083015f830151612c7e5f860182612bc0565b506020830151612c916020860182612bcf565b506040830151612ca46040860182612bcf565b506060830151612cb76060860182612bea565b5060808301518482036080860152612ccf8282612c31565b91505060a0830151612ce460a0860182612bc0565b508091505092915050565b5f612cfa8383612c69565b905092915050565b5f602082019050919050565b5f612d1882612b97565b612d228185612ba1565b935083602082028501612d3485612bb1565b805f5b85811015612d6f5784840389528151612d508582612cef565b9450612d5b83612d02565b925060208a01995050600181019050612d37565b50829750879550505050505092915050565b5f6020820190508181035f830152612d998184612d0e565b905092915050565b5f612dab82612ae7565b9050919050565b612dbb81612da1565b82525050565b5f602082019050612dd45f830184612db2565b92915050565b5f60208284031215612def57612dee612936565b5b5f612dfc848285016129f1565b91505092915050565b5f60208284031215612e1a57612e19612936565b5b5f612e278482850161295d565b91505092915050565b612e3981612b31565b82525050565b612e48816129d2565b82525050565b5f82825260208201905092915050565b5f612e6882612bf9565b612e728185612e4e565b9350612e82818560208601612c13565b612e8b81612c21565b840191505092915050565b5f8115159050919050565b612eaa81612e96565b82525050565b5f61010082019050612ec45f83018b612a76565b612ed1602083018a612e30565b612ede6040830189612e30565b612eeb6060830188612a76565b612ef86080830187612e3f565b81810360a0830152612f0a8186612e5e565b9050612f1960c0830185612a76565b612f2660e0830184612ea1565b9998505050505050505050565b612f3c81612bde565b8114612f46575f5ffd5b50565b5f81359050612f5781612f33565b92915050565b5f5f5f5f60608587031215612f7557612f74612936565b5b5f612f8287828801612b58565b9450506020612f9387828801612f49565b935050604085013567ffffffffffffffff811115612fb457612fb361293a565b5b612fc08782880161297d565b925092505092959194509250565b5f5ffd5b7f4e487b71000000000000000000000000000000000000000000000000000000005f52604160045260245ffd5b61300882612c21565b810181811067ffffffffffffffff8211171561302757613026612fd2565b5b80604052505050565b5f61303961292d565b90506130458282612fff565b919050565b5f67ffffffffffffffff82111561306457613063612fd2565b5b61306d82612c21565b9050602081019050919050565b828183375f83830152505050565b5f61309a6130958461304a565b613030565b9050828152602081018484840111156130b6576130b5612fce565b5b6130c184828561307a565b509392505050565b5f82601f8301126130dd576130dc612971565b5b81356130ed848260208601613088565b91505092915050565b5f6020828403121561310b5761310a612936565b5b5f82013567ffffffffffffffff8111156131285761312761293a565b5b613134848285016130c9565b91505092915050565b5f7fffffffffffffffffffffffffffffffffffffffffff000000000000000000000082169050919050565b6131718161313d565b82525050565b5f60208201905061318a5f830184613168565b92915050565b5f815f0b9050919050565b6131a481613190565b82525050565b5f6040820190506131bd5f830185612a76565b6131ca602083018461319b565b9392505050565b5f6020820190506131e45f830184612e30565b92915050565b5f5f5f6040848603121561320157613200612936565b5b5f84013567ffffffffffffffff81111561321e5761321d61293a565b5b61322a8682870161297d565b9350935050602061323d86828701612b58565b9150509250925092565b5f5f6040838503121561325d5761325c612936565b5b5f61326a85828601612b58565b925050602061327b85828601612b58565b9150509250929050565b5f6020820190506132985f830184612ea1565b92915050565b600281106132aa575f5ffd5b50565b5f813590506132bb8161329e565b92915050565b6132ca81612e96565b81146132d4575f5ffd5b50565b5f813590506132e5816132c1565b92915050565b5f5f5f5f5f5f5f5f5f5f60e08b8d03121561330957613308612936565b5b5f6133168d828e0161295d565b9a505060208b013567ffffffffffffffff8111156133375761333661293a565b5b6133438d828e0161297d565b995099505060408b013567ffffffffffffffff8111156133665761336561293a565b5b6133728d828e0161297d565b975097505060606133858d828e0161295d565b95505060808b013567ffffffffffffffff8111156133a6576133a561293a565b5b6133b28d828e0161297d565b945094505060a06133c58d828e016132ad565b92505060c06133d68d828e016132d7565b9150509295989b9194979a5092959850565b5f5f604083850312156133fe576133fd612936565b5b5f61340b85828601612b58565b925050602061341c8582860161295d565b9150509250929050565b61342f81612bde565b82525050565b5f60c0820190506134485f830189612a76565b6134556020830188612e30565b6134626040830187612e30565b61346f6060830186613426565b81810360808301526134818185612e5e565b905061349060a0830184612a76565b979650505050505050565b5f6134a582612ae7565b9050919050565b6134b58161349b565b82525050565b5f6020820190506134ce5f8301846134ac565b92915050565b7f4e487b71000000000000000000000000000000000000000000000000000000005f52602160045260245ffd5b60028110613512576135116134d4565b5b50565b5f81905061352282613501565b919050565b5f61353182613515565b9050919050565b61354181613527565b82525050565b5f6101008201905061355b5f83018b612a76565b613568602083018a612e30565b818103604083015261357a8189612e5e565b9050818103606083015261358e8188612e5e565b905061359d6080830187612a76565b81810360a08301526135af8186612e5e565b90506135be60c0830185613538565b6135cb60e0830184612ea1565b9998505050505050505050565b5f5f5f5f5f5f5f5f60a0898b0312156135f4576135f3612936565b5b5f89013567ffffffffffffffff8111156136115761361061293a565b5b61361d8b828c0161297d565b9850985050602089013567ffffffffffffffff8111156136405761363f61293a565b5b61364c8b828c0161297d565b9650965050604061365f8b828c0161295d565b945050606089013567ffffffffffffffff8111156136805761367f61293a565b5b61368c8b828c0161297d565b9350935050608061369f8b828c016132ad565b9150509295985092959890939650565b5f5ffd5b5f606082840312156136c8576136c76136af565b5b81905092915050565b5f5f604083850312156136e7576136e6612936565b5b5f6136f48582860161295d565b925050602083013567ffffffffffffffff8111156137155761371461293a565b5b613721858286016136b3565b9150509250929050565b5f60208201905061373e5f830184613426565b92915050565b7f4e487b71000000000000000000000000000000000000000000000000000000005f52602260045260245ffd5b5f600282049050600182168061378857607f821691505b60208210810361379b5761379a613744565b5b50919050565b7f4c697374696e6720646f6573206e6f74206578697374000000000000000000005f82015250565b5f6137d5601683612e4e565b91506137e0826137a1565b602082019050919050565b5f6020820190508181035f830152613802816137c9565b9050919050565b7f4c697374696e6720697320696e616374697665000000000000000000000000005f82015250565b5f61383d601383612e4e565b915061384882613809565b602082019050919050565b5f6020820190508181035f83015261386a81613831565b9050919050565b7f5061796d656e74207265666572656e636520616c7265616479206578697374735f82015250565b5f6138a5602083612e4e565b91506138b082613871565b602082019050919050565b5f6020820190508181035f8301526138d281613899565b9050919050565b7f496e76616c6964206f7261636c652070726963650000000000000000000000005f82015250565b5f61390d601483612e4e565b9150613918826138d9565b602082019050919050565b5f6020820190508181035f83015261393a81613901565b9050919050565b5f81905092915050565b5f6139568385613941565b935061396383858461307a565b82840190509392505050565b5f61397b82848661394b565b91508190509392505050565b7f556e737570706f727465642063757272656e637920646563696d616c730000005f82015250565b5f6139bb601d83612e4e565b91506139c682613987565b602082019050919050565b5f6020820190508181035f8301526139e8816139af565b9050919050565b7f4e487b71000000000000000000000000000000000000000000000000000000005f52601160045260245ffd5b5f613a268261293e565b9150613a318361293e565b9250828202613a3f8161293e565b91508282048414831517613a5657613a556139ef565b5b5092915050565b5f8160011c9050919050565b5f5f8291508390505b6001851115613ab257808604811115613a8e57613a8d6139ef565b5b6001851615613a9d5780820291505b8081029050613aab85613a5d565b9450613a72565b94509492505050565b5f82613aca5760019050613b85565b81613ad7575f9050613b85565b8160018114613aed5760028114613af757613b26565b6001915050613b85565b60ff841115613b0957613b086139ef565b5b8360020a915084821115613b2057613b1f6139ef565b5b50613b85565b5060208310610133831016604e8410600b8410161715613b5b5782820a905083811115613b5657613b556139ef565b5b613b85565b613b688484846001613a69565b92509050818404811115613b7f57613b7e6139ef565b5b81810290505b9392505050565b5f613b968261293e565b9150613ba183612bde565b9250613bce7fffffffffffffffffffffffffffffffffffffffffffffffffffffffffffffffff8484613abb565b905092915050565b7f4e487b71000000000000000000000000000000000000000000000000000000005f52601260045260245ffd5b5f613c0d8261293e565b9150613c188361293e565b925082613c2857613c27613bd6565b5b828204905092915050565b5f613c3d8261293e565b91507fffffffffffffffffffffffffffffffffffffffffffffffffffffffffffffffff8203613c6f57613c6e6139ef565b5b600182019050919050565b5f819050815f5260205f209050919050565b5f6020601f8301049050919050565b5f82821b905092915050565b5f60088302613cd67fffffffffffffffffffffffffffffffffffffffffffffffffffffffffffffffff82613c9b565b613ce08683613c9b565b95508019841693508086168417925050509392505050565b5f613d12613d0d613d088461293e565b612abd565b61293e565b9050919050565b5f819050919050565b613d2b83613cf8565b613d3f613d3782613d19565b848454613ca7565b825550505050565b5f5f905090565b613d56613d47565b613d61818484613d22565b505050565b5f5b82811015613d8757613d7c5f828401613d4e565b600181019050613d68565b505050565b601f821115613dda5782821115613dd957613da681613c7a565b613daf83613c8c565b613db885613c8c565b6020861015613dc5575f90505b808301613dd482840382613d66565b505050505b5b505050565b5f82821c905092915050565b5f613dfa5f1984600802613ddf565b1980831691505092915050565b5f613e128383613deb565b9150826002028217905092915050565b613e2b82612bf9565b67ffffffffffffffff811115613e4457613e43612fd2565b5b613e4e8254613771565b613e59828285613d8c565b5f60209050601f831160018114613e8a575f8415613e78578287015190505b613e828582613e07565b865550613ee9565b601f198416613e9886613c7a565b5f5b82811015613ebf57848901518255600182019150602085019450602081019050613e9a565b86831015613edc5784890151613ed8601f891682613deb565b8355505b6001600288020188555050505b505050505050565b5f613efc8385612e4e565b9350613f0983858461307a565b613f1283612c21565b840190509392505050565b5f608082019050613f305f830188612a76565b8181036020830152613f43818688613ef1565b9050613f526040830185612a76565b613f5f6060830184612e3f565b9695505050505050565b7f526174696e67206d757374206265206265747765656e203120616e64203520465f8201527f6c61726974792053746172730000000000000000000000000000000000000000602082015250565b5f613fc3602c83612e4e565b9150613fce82613f69565b604082019050919050565b5f6020820190508181035f830152613ff081613fb7565b9050919050565b7f4f6e6c79207665726966696564206275796572732063616e20726576696577005f82015250565b5f61402b601f83612e4e565b915061403682613ff7565b602082019050919050565b5f6020820190508181035f8301526140588161401f565b9050919050565b5f6140698261293e565b91506140748361293e565b925082820190508082111561408c5761408b6139ef565b5b92915050565b5f6040820190506140a55f830186613426565b81810360208301526140b8818486613ef1565b9050949350505050565b5f6140cc82612bf9565b6140d68185613941565b93506140e6818560208601612c13565b80840191505092915050565b5f6140fd82846140c2565b915081905092915050565b7f556e737570706f727465642070726963652066656564000000000000000000005f82015250565b5f61413c601683612e4e565b915061414782614108565b602082019050919050565b5f6020820190508181035f83015261416981614130565b9050919050565b5f8151905061417e81612947565b92915050565b61418d81613190565b8114614197575f5ffd5b50565b5f815190506141a881614184565b92915050565b5f67ffffffffffffffff82169050919050565b6141ca816141ae565b81146141d4575f5ffd5b50565b5f815190506141e5816141c1565b92915050565b5f5f5f6060848603121561420257614201612936565b5b5f61420f86828701614170565b93505060206142208682870161419a565b9250506040614231868287016141d7565b9150509250925092565b7f4f6e6c79206f776e65722063616e2065786563757465207468697300000000005f82015250565b5f61426f601b83612e4e565b915061427a8261423b565b602082019050919050565b5f6020820190508181035f83015261429c81614263565b9050919050565b7f4f6e6c7920746865206c697374696e672073656c6c65722063616e20656469745f82015250565b5f6142d7602083612e4e565b91506142e2826142a3565b602082019050919050565b5f6020820190508181035f830152614304816142cb565b9050919050565b7f5072696365206d75737420626520706f736974697665000000000000000000005f82015250565b5f61433f601683612e4e565b915061434a8261430b565b602082019050919050565b5f6020820190508181035f83015261436c81614333565b9050919050565b5f82905092915050565b6143878383614373565b67ffffffffffffffff8111156143a05761439f612fd2565b5b6143aa8254613771565b6143b5828285613d8c565b5f601f8311600181146143e2575f84156143d0578287013590505b6143da8582613e07565b865550614441565b601f1984166143f086613c7a565b5f5b82811015614417578489013582556001820191506020850194506020810190506143f2565b868310156144345784890135614430601f891682613deb565b8355505b6001600288020188555050505b50505050505050565b5f6060820190508181035f830152614463818688613ef1565b90506144726020830185612a76565b61447f6040830184612ea1565b95945050505050565b5f6060820190508181035f8301526144a1818688613ef1565b90506144b06020830185612a76565b6144bd6040830184613538565b95945050505050565b7f4f6e6c7920746865206c697374696e672073656c6c65722063616e2064656c655f8201527f7465000000000000000000000000000000000000000000000000000000000000602082015250565b5f614520602283612e4e565b915061452b826144c6565b604082019050919050565b5f6020820190508181035f83015261454d81614514565b9050919050565b7f496e766f69636520646f6573206e6f74206578697374000000000000000000005f82015250565b5f614588601683612e4e565b915061459382614554565b602082019050919050565b5f6020820190508181035f8301526145b58161457c565b9050919050565b7f496e766f69636520616c726561647920736574746c65640000000000000000005f82015250565b5f6145f0601783612e4e565b91506145fb826145bc565b602082019050919050565b5f6020820190508181035f83015261461d816145e4565b9050919050565b5f5ffd5b5f5ffd5b5f5ffd5b5f8235600160c00383360303811261464b5761464a614624565b5b80830191505092915050565b7f5061796d656e74207265666572656e6365206d69736d617463680000000000005f82015250565b5f61468b601a83612e4e565b915061469682614657565b602082019050919050565b5f6020820190508181035f8301526146b88161467f565b9050919050565b5f81905092915050565b5f819050815f5260205f209050919050565b5f81546146e781613771565b6146f181866146bf565b9450600182165f811461470b576001811461472057614752565b60ff1983168652811515820286019350614752565b614729856146c9565b5f5b8381101561474a5781548189015260018201915060208101905061472b565b838801955050505b50505092915050565b5f61476682846146db565b915081905092915050565b5f5f8335600160200384360303811261478d5761478c614624565b5b80840192508235915067ffffffffffffffff8211156147af576147ae614628565b5b6020830192506001820236038313156147cb576147ca61462c565b5b509250929050565b5f6147de83856146bf565b93506147eb83858461307a565b82840190509392505050565b5f6148038284866147d3565b91508190509392505050565b7f43757272656e637920636861696e206d69736d617463680000000000000000005f82015250565b5f614843601783612e4e565b915061484e8261480f565b602082019050919050565b5f6020820190508181035f83015261487081614837565b9050919050565b7f5061696420616d6f756e7420697320696e73756666696369656e7400000000005f82015250565b5f6148ab601b83612e4e565b91506148b682614877565b602082019050919050565b5f6020820190508181035f8301526148d88161489f565b9050919050565b7f496e76616c6964206174746573746174696f6e207479706500000000000000005f82015250565b5f614913601883612e4e565b915061491e826148df565b602082019050919050565b5f6020820190508181035f83015261494081614907565b9050919050565b5f61495560208401846129f1565b905092915050565b614966816129d2565b82525050565b5f5ffd5b5f5ffd5b5f5ffd5b5f5f8335600160200384360303811261499457614993614974565b5b83810192508235915060208301925067ffffffffffffffff8211156149bc576149bb61496c565b5b6020820236038313156149d2576149d1614970565b5b509250929050565b5f82825260208201905092915050565b5f5ffd5b82818337505050565b5f614a0283856149da565b93507f07ffffffffffffffffffffffffffffffffffffffffffffffffffffffffffffff831115614a3557614a346149ea565b5b602083029250614a468385846149ee565b82840190509392505050565b5f8235600160c003833603038112614a6d57614a6c614974565b5b82810191505092915050565b5f5f83356001602003843603038112614a9557614a94614974565b5b83810192508235915060208301925067ffffffffffffffff821115614abd57614abc61496c565b5b600182023603831315614ad357614ad2614970565b5b509250929050565b5f614ae68385612c03565b9350614af383858461307a565b614afc83612c21565b840190509392505050565b5f614b15602084018461295d565b905092915050565b5f60c08301614b2e5f840184614a79565b8583035f870152614b40838284614adb565b92505050614b516020840184614a79565b8583036020870152614b64838284614adb565b92505050614b756040840184614947565b614b82604086018261495d565b50614b906060840184614947565b614b9d606086018261495d565b50614bab6080840184614b07565b614bb86080860182612bc0565b50614bc660a0840184614a79565b85830360a0870152614bd9838284614adb565b925050508091505092915050565b5f60608301614bf85f840184614947565b614c045f86018261495d565b50614c126020840184614978565b8583036020870152614c258382846149f7565b92505050614c366040840184614a52565b8482036040860152614c488282614b1d565b9150508091505092915050565b5f6020820190508181035f830152614c6d8184614be7565b905092915050565b5f81519050614c83816132c1565b92915050565b5f60208284031215614c9e57614c9d612936565b5b5f614cab84828501614c75565b91505092915050565b7f464443206174746573746174696f6e2070726f6f6620766572696669636174695f8201527f6f6e206661696c65640000000000000000000000000000000000000000000000602082015250565b5f614d0e602983612e4e565b9150614d1982614cb4565b604082019050919050565b5f6020820190508181035f830152614d3b81614d02565b9050919050565b5f8154614d4e81613771565b614d588186613941565b9450600182165f8114614d725760018114614d8757614db9565b60ff1983168652811515820286019350614db9565b614d9085613c7a565b5f5b83811015614db157815481890152600182019150602081019050614d92565b838801955050505b50505092915050565b5f614dcd8284614d42565b915081905092915050565b5f604082019050614deb5f830185612e30565b614df86020830184612a76565b9392505050565b5f606082019050614e125f830186612e3f565b614e1f6020830185612a76565b614e2c6040830184612a76565b94935050505056fea26469706673582212205a724e48fae8662c14e908b242e224d79f9dd071f4ee9ac0d0b29b97117562e464736f6c63430008230033","linkReferences":{}},"methodIdentifiers":{"createInvoice(uint256,string,bytes32)":"008f248b","deleteListing(uint256)":"e6282c6e","editListing(uint256,string,string,uint256,string,uint8,bool)":"bc2fdc45","fAssets(string)":"dbeca2a0","fdcVerification()":"3ad6d516","ftsoFeeds(string)":"60a04c77","ftsoV2()":"25e89883","getLivePrice(string)":"86981478","getReviewsCount(address)":"c95de391","getSellerReviews(address)":"2f2131d1","hasPurchasedFrom(address,address)":"b5ccb437","invoiceCount()":"1346f0c4","invoices(uint256)":"4e6d1405","listItem(string,string,uint256,string,uint8)":"dea88770","listingCount()":"a9b07c26","listings(uint256)":"de74e57b","merchantWallet()":"bc85e064","owner()":"8da5cb5b","referenceToInvoiceId(bytes32)":"4cfa2b24","reviewCount()":"eff5924f","sellerRatingSums(address)":"62e39d1c","sellerReviews(address,uint256)":"cf7d0168","setFAsset(string,address)":"a6883929","setFdcVerification(address)":"e443147f","setMerchantWallet(address)":"ddda66db","settlePayment(uint256,(bytes32,bytes32[],(string,string,bytes32,bytes32,uint256,string)))":"e66c64b9","submitReview(address,uint8,string)":"55495f1f","tokenDecimals(string)":"f454fd9b"},"id":19}