{"abi":[{"type":"constructor","inputs":[{"name":"_ftsoV2","type":"address","internalType":"address"},{"name":"_fdcVerification","type":"address","internalType":"address"},{"name":"_merchantWallet","type":"address","internalType":"address"}],"stateMutability":"nonpayable"},{"type":"function","name":"createInvoice","inputs":[{"name":"_amountUSD","type":"uint256","internalType":"uint256"},{"name":"_currency","type":"string","internalType":"string"},{"name":"_paymentReference","type":"bytes32","internalType":"bytes32"}],"outputs":[{"name":"invoiceId","type":"uint256","internalType":"uint256"}],"stateMutability":"nonpayable"},{"type":"function","name":"fAssets","inputs":[{"name":"","type":"string","internalType":"string"}],"outputs":[{"name":"","type":"address","internalType":"contract MockFAsset"}],"stateMutability":"view"},{"type":"function","name":"fdcVerification","inputs":[],"outputs":[{"name":"","type":"address","internalType":"contract IPaymentVerification"}],"stateMutability":"view"},{"type":"function","name":"ftsoFeeds","inputs":[{"name":"","type":"string","internalType":"string"}],"outputs":[{"name":"","type":"bytes21","internalType":"bytes21"}],"stateMutability":"view"},{"type":"function","name":"ftsoV2","inputs":[],"outputs":[{"name":"","type":"address","internalType":"contract IFtsoV2"}],"stateMutability":"view"},{"type":"function","name":"getLivePrice","inputs":[{"name":"_ticker","type":"string","internalType":"string"}],"outputs":[{"name":"price","type":"uint256","internalType":"uint256"},{"name":"decimals","type":"int8","internalType":"int8"}],"stateMutability":"view"},{"type":"function","name":"invoiceCount","inputs":[],"outputs":[{"name":"","type":"uint256","internalType":"uint256"}],"stateMutability":"view"},{"type":"function","name":"invoices","inputs":[{"name":"","type":"uint256","internalType":"uint256"}],"outputs":[{"name":"id","type":"uint256","internalType":"uint256"},{"name":"amountUSD","type":"uint256","internalType":"uint256"},{"name":"paymentReference","type":"bytes32","internalType":"bytes32"},{"name":"currency","type":"string","internalType":"string"},{"name":"amountCrypto","type":"uint256","internalType":"uint256"},{"name":"settled","type":"bool","internalType":"bool"}],"stateMutability":"view"},{"type":"function","name":"merchantWallet","inputs":[],"outputs":[{"name":"","type":"address","internalType":"address"}],"stateMutability":"view"},{"type":"function","name":"owner","inputs":[],"outputs":[{"name":"","type":"address","internalType":"address"}],"stateMutability":"view"},{"type":"function","name":"referenceToInvoiceId","inputs":[{"name":"","type":"bytes32","internalType":"bytes32"}],"outputs":[{"name":"","type":"uint256","internalType":"uint256"}],"stateMutability":"view"},{"type":"function","name":"setFAsset","inputs":[{"name":"_ticker","type":"string","internalType":"string"},{"name":"_fAssetAddress","type":"address","internalType":"address"}],"outputs":[],"stateMutability":"nonpayable"},{"type":"function","name":"setFdcVerification","inputs":[{"name":"_fdcVerification","type":"address","internalType":"address"}],"outputs":[],"stateMutability":"nonpayable"},{"type":"function","name":"setMerchantWallet","inputs":[{"name":"_merchantWallet","type":"address","internalType":"address"}],"outputs":[],"stateMutability":"nonpayable"},{"type":"function","name":"settlePayment","inputs":[{"name":"_invoiceId","type":"uint256","internalType":"uint256"},{"name":"_proof","type":"tuple","internalType":"struct IPaymentVerification.Proof","components":[{"name":"merkleRoot","type":"bytes32","internalType":"bytes32"},{"name":"merkleProof","type":"bytes32[]","internalType":"bytes32[]"},{"name":"requestBody","type":"tuple","internalType":"struct IPaymentVerification.RequestBody","components":[{"name":"attestationType","type":"string","internalType":"string"},{"name":"sourceId","type":"string","internalType":"string"},{"name":"transactionId","type":"bytes32","internalType":"bytes32"},{"name":"paymentReference","type":"bytes32","internalType":"bytes32"},{"name":"amount","type":"uint256","internalType":"uint256"},{"name":"receivingAddress","type":"string","internalType":"string"}]}]}],"outputs":[],"stateMutability":"nonpayable"},{"type":"function","name":"tokenDecimals","inputs":[{"name":"","type":"string","internalType":"string"}],"outputs":[{"name":"","type":"uint8","internalType":"uint8"}],"stateMutability":"view"},{"type":"event","name":"InvoiceCreated","inputs":[{"name":"invoiceId","type":"uint256","indexed":true,"internalType":"uint256"},{"name":"amountUSD","type":"uint256","indexed":false,"internalType":"uint256"},{"name":"currency","type":"string","indexed":false,"internalType":"string"},{"name":"amountCrypto","type":"uint256","indexed":false,"internalType":"uint256"},{"name":"paymentReference","type":"bytes32","indexed":true,"internalType":"bytes32"}],"anonymous":false},{"type":"event","name":"PaymentSettled","inputs":[{"name":"invoiceId","type":"uint256","indexed":true,"internalType":"uint256"},{"name":"transactionId","type":"bytes32","indexed":false,"internalType":"bytes32"},{"name":"amountPaid","type":"uint256","indexed":false,"internalType":"uint256"},{"name":"fassetsMinted","type":"uint256","indexed":false,"internalType":"uint256"}],"anonymous":false}],"bytecode":{"object":"0x60a060405234801561000f575f5ffd5b506040516131c83803806131c8833981810160405281019061003191906103de565b3360015f6101000a81548173ffffffffffffffffffffffffffffffffffffffff021916908373ffffffffffffffffffffffffffffffffffffffff1602179055508273ffffffffffffffffffffffffffffffffffffffff1660808173ffffffffffffffffffffffffffffffffffffffff1681525050815f5f6101000a81548173ffffffffffffffffffffffffffffffffffffffff021916908373ffffffffffffffffffffffffffffffffffffffff1602179055508060025f6101000a81548173ffffffffffffffffffffffffffffffffffffffff021916908373ffffffffffffffffffffffffffffffffffffffff1602179055507401464c522f5553440000000000000000000000000060581b600360405161014b90610482565b90815260200160405180910390205f6101000a81548174ffffffffffffffffffffffffffffffffffffffffff021916908360581c021790555074014254432f5553440000000000000000000000000060581b60036040516101ab906104e0565b90815260200160405180910390205f6101000a81548174ffffffffffffffffffffffffffffffffffffffffff021916908360581c021790555074015852502f5553440000000000000000000000000060581b600360405161020b9061053e565b90815260200160405180910390205f6101000a81548174ffffffffffffffffffffffffffffffffffffffffff021916908360581c02179055507401444f47452f55534400000000000000000000000060581b600360405161026b9061059c565b90815260200160405180910390205f6101000a81548174ffffffffffffffffffffffffffffffffffffffffff021916908360581c0217905550601260046040516102b490610482565b90815260200160405180910390205f6101000a81548160ff021916908360ff160217905550600660046040516102e99061053e565b90815260200160405180910390205f6101000a81548160ff021916908360ff1602179055506008600460405161031e906104e0565b90815260200160405180910390205f6101000a81548160ff021916908360ff160217905550600860046040516103539061059c565b90815260200160405180910390205f6101000a81548160ff021916908360ff1602179055505050506105b0565b5f5ffd5b5f73ffffffffffffffffffffffffffffffffffffffff82169050919050565b5f6103ad82610384565b9050919050565b6103bd816103a3565b81146103c7575f5ffd5b50565b5f815190506103d8816103b4565b92915050565b5f5f5f606084860312156103f5576103f4610380565b5b5f610402868287016103ca565b9350506020610413868287016103ca565b9250506040610424868287016103ca565b9150509250925092565b5f81905092915050565b7f464c5200000000000000000000000000000000000000000000000000000000005f82015250565b5f61046c60038361042e565b915061047782610438565b600382019050919050565b5f61048c82610460565b9150819050919050565b7f42544300000000000000000000000000000000000000000000000000000000005f82015250565b5f6104ca60038361042e565b91506104d582610496565b600382019050919050565b5f6104ea826104be565b9150819050919050565b7f58525000000000000000000000000000000000000000000000000000000000005f82015250565b5f61052860038361042e565b9150610533826104f4565b600382019050919050565b5f6105488261051c565b9150819050919050565b7f444f4745000000000000000000000000000000000000000000000000000000005f82015250565b5f61058660048361042e565b915061059182610552565b600482019050919050565b5f6105a68261057a565b9150819050919050565b608051612bf96105cf5f395f81816106b2015261089f0152612bf95ff3fe608060405234801561000f575f5ffd5b50600436106100fd575f3560e01c80638da5cb5b11610095578063ddda66db11610064578063ddda66db146102d9578063e443147f146102f5578063e66c64b914610311578063f454fd9b1461032d576100fd565b80638da5cb5b14610251578063a68839291461026f578063bc85e0641461028b578063dbeca2a0146102a9576100fd565b80634cfa2b24116100d15780634cfa2b241461018b5780634e6d1405146101bb57806360a04c77146101f05780638698147814610220576100fd565b80628f248b146101015780631346f0c41461013157806325e898831461014f5780633ad6d5161461016d575b5f5ffd5b61011b6004803603810190610116919061128d565b61035d565b604051610128919061130d565b60405180910390f35b6101396106aa565b604051610146919061130d565b60405180910390f35b6101576106b0565b60405161016491906113a0565b60405180910390f35b6101756106d4565b60405161018291906113d9565b60405180910390f35b6101a560048036038101906101a091906113f2565b6106f8565b6040516101b2919061130d565b60405180910390f35b6101d560048036038101906101d0919061141d565b61070d565b6040516101e7969594939291906114e1565b60405180910390f35b61020a6004803603810190610205919061166f565b6107d7565b60405161021791906116f0565b60405180910390f35b61023a6004803603810190610235919061166f565b61080c565b604051610248929190611723565b60405180910390f35b610259610944565b604051610266919061176a565b60405180910390f35b610289600480360381019061028491906117ad565b610969565b005b610293610a5b565b6040516102a0919061176a565b60405180910390f35b6102c360048036038101906102be919061166f565b610a80565b6040516102d0919061182a565b60405180910390f35b6102f360048036038101906102ee9190611843565b610ac8565b005b61030f600480360381019061030a9190611843565b610b9a565b005b61032b60048036038101906103269190611890565b610c6b565b005b6103476004803603810190610342919061166f565b611180565b6040516103549190611905565b60405180910390f35b5f5f85116103a0576040517f08c379a000000000000000000000000000000000000000000000000000000000815260040161039790611968565b60405180910390fd5b5f60085f8481526020019081526020015f2054146103f3576040517f08c379a00000000000000000000000000000000000000000000000000000000081526004016103ea906119d0565b60405180910390fd5b5f5f61044186868080601f0160208091040260200160405190810160405280939291908181526020018383808284375f81840152601f19601f8201169050808301925050505050505061080c565b915091505f8211610487576040517f08c379a000000000000000000000000000000000000000000000000000000000815260040161047e90611a38565b60405180910390fd5b5f6004878760405161049a929190611a84565b90815260200160405180910390205f9054906101000a900460ff1690505f8160ff16116104fc576040517f08c379a00000000000000000000000000000000000000000000000000000000081526004016104f390611ae6565b60405180910390fd5b5f670de0b6b3a7640000846105119190611b31565b82600a61051e9190611ca1565b84600a61052b9190611ca1565b8b6105369190611b31565b6105409190611b31565b61054a9190611d18565b905060065f81548092919061055e90611d48565b919050555060065494506040518060c001604052808681526020018a815260200187815260200189898080601f0160208091040260200160405190810160405280939291908181526020018383808284375f81840152601f19601f8201169050808301925050505050505081526020018281526020015f151581525060075f8781526020019081526020015f205f820151815f01556020820151816001015560408201518160020155606082015181600301908161061c9190611f94565b506080820151816004015560a0820151816005015f6101000a81548160ff0219169083151502179055509050508460085f8881526020019081526020015f208190555085857fc717d207f1a540d81a851c6068209a33c39752e99c10d02e2209883ecba8d02c8b8b8b86604051610696949392919061208f565b60405180910390a350505050949350505050565b60065481565b7f000000000000000000000000000000000000000000000000000000000000000081565b5f5f9054906101000a900473ffffffffffffffffffffffffffffffffffffffff1681565b6008602052805f5260405f205f915090505481565b6007602052805f5260405f205f91509050805f01549080600101549080600201549080600301805461073e90611dbc565b80601f016020809104026020016040519081016040528092919081815260200182805461076a90611dbc565b80156107b55780601f1061078c576101008083540402835291602001916107b5565b820191905f5260205f20905b81548152906001019060200180831161079857829003601f168201915b505050505090806004015490806005015f9054906101000a900460ff16905086565b6003818051602081018201805184825260208301602085012081835280955050505050505f915054906101000a900460581b81565b5f5f5f60038460405161081f91906120fd565b90815260200160405180910390205f9054906101000a900460581b90505f60581b6affffffffffffffffffffff1916816affffffffffffffffffffff19160361089d576040517f08c379a00000000000000000000000000000000000000000000000000000000081526004016108949061215d565b60405180910390fd5b7f000000000000000000000000000000000000000000000000000000000000000073ffffffffffffffffffffffffffffffffffffffff166393e9f806826040518263ffffffff1660e01b81526004016108f691906116f0565b606060405180830381865afa158015610911573d5f5f3e3d5ffd5b505050506040513d601f19601f8201168201806040525081019061093591906121f6565b50809350819450505050915091565b60015f9054906101000a900473ffffffffffffffffffffffffffffffffffffffff1681565b60015f9054906101000a900473ffffffffffffffffffffffffffffffffffffffff1673ffffffffffffffffffffffffffffffffffffffff163373ffffffffffffffffffffffffffffffffffffffff16146109f8576040517f08c379a00000000000000000000000000000000000000000000000000000000081526004016109ef90612290565b60405180910390fd5b8060058484604051610a0b929190611a84565b90815260200160405180910390205f6101000a81548173ffffffffffffffffffffffffffffffffffffffff021916908373ffffffffffffffffffffffffffffffffffffffff160217905550505050565b60025f9054906101000a900473ffffffffffffffffffffffffffffffffffffffff1681565b6005818051602081018201805184825260208301602085012081835280955050505050505f915054906101000a900473ffffffffffffffffffffffffffffffffffffffff1681565b60015f9054906101000a900473ffffffffffffffffffffffffffffffffffffffff1673ffffffffffffffffffffffffffffffffffffffff163373ffffffffffffffffffffffffffffffffffffffff1614610b57576040517f08c379a0000000000000000000000000000000000000000000000000000000008152600401610b4e90612290565b60405180910390fd5b8060025f6101000a81548173ffffffffffffffffffffffffffffffffffffffff021916908373ffffffffffffffffffffffffffffffffffffffff16021790555050565b60015f9054906101000a900473ffffffffffffffffffffffffffffffffffffffff1673ffffffffffffffffffffffffffffffffffffffff163373ffffffffffffffffffffffffffffffffffffffff1614610c29576040517f08c379a0000000000000000000000000000000000000000000000000000000008152600401610c2090612290565b60405180910390fd5b805f5f6101000a81548173ffffffffffffffffffffffffffffffffffffffff021916908373ffffffffffffffffffffffffffffffffffffffff16021790555050565b5f60075f8481526020019081526020015f2090505f815f015403610cc4576040517f08c379a0000000000000000000000000000000000000000000000000000000008152600401610cbb906122f8565b60405180910390fd5b806005015f9054906101000a900460ff1615610d15576040517f08c379a0000000000000000000000000000000000000000000000000000000008152600401610d0c90612360565b60405180910390fd5b8060020154828060400190610d2a919061238a565b6060013514610d6e576040517f08c379a0000000000000000000000000000000000000000000000000000000008152600401610d65906123fb565b60405180910390fd5b80600301604051610d7f91906124b5565b6040518091039020828060400190610d97919061238a565b8060200190610da691906124cb565b604051610db4929190612551565b604051809103902014610dfc576040517f08c379a0000000000000000000000000000000000000000000000000000000008152600401610df3906125b3565b60405180910390fd5b8060040154828060400190610e11919061238a565b608001351015610e56576040517f08c379a0000000000000000000000000000000000000000000000000000000008152600401610e4d9061261b565b60405180910390fd5b6040518060400160405280600781526020017f5061796d656e740000000000000000000000000000000000000000000000000081525080519060200120828060400190610ea3919061238a565b805f0190610eb191906124cb565b604051610ebf929190612551565b604051809103902014610f07576040517f08c379a0000000000000000000000000000000000000000000000000000000008152600401610efe90612683565b60405180910390fd5b5f5f5f9054906101000a900473ffffffffffffffffffffffffffffffffffffffff1673ffffffffffffffffffffffffffffffffffffffff16630cacbfc9846040518263ffffffff1660e01b8152600401610f6191906129ce565b602060405180830381865afa158015610f7c573d5f5f3e3d5ffd5b505050506040513d601f19601f82011682018060405250810190610fa09190612a18565b905080610fe2576040517f08c379a0000000000000000000000000000000000000000000000000000000008152600401610fd990612ab3565b60405180910390fd5b6001826005015f6101000a81548160ff0219169083151502179055505f6005836003016040516110129190612b51565b90815260200160405180910390205f9054906101000a900473ffffffffffffffffffffffffffffffffffffffff1690505f848060400190611053919061238a565b6080013590505f73ffffffffffffffffffffffffffffffffffffffff168273ffffffffffffffffffffffffffffffffffffffff1614611116578173ffffffffffffffffffffffffffffffffffffffff166340c10f1960025f9054906101000a900473ffffffffffffffffffffffffffffffffffffffff16836040518363ffffffff1660e01b81526004016110e8929190612b67565b5f604051808303815f87803b1580156110ff575f5ffd5b505af1158015611111573d5f5f3e3d5ffd5b505050505b857ff3a5044073ddf2586ea1b3ee717d1fb4da173aa5415846208b789e2ed467d92d868060400190611148919061238a565b6040013587806040019061115c919061238a565b608001358460405161117093929190612b8e565b60405180910390a2505050505050565b6004818051602081018201805184825260208301602085012081835280955050505050505f915054906101000a900460ff1681565b5f604051905090565b5f5ffd5b5f5ffd5b5f819050919050565b6111d8816111c6565b81146111e2575f5ffd5b50565b5f813590506111f3816111cf565b92915050565b5f5ffd5b5f5ffd5b5f5ffd5b5f5f83601f84011261121a576112196111f9565b5b8235905067ffffffffffffffff811115611237576112366111fd565b5b60208301915083600182028301111561125357611252611201565b5b9250929050565b5f819050919050565b61126c8161125a565b8114611276575f5ffd5b50565b5f8135905061128781611263565b92915050565b5f5f5f5f606085870312156112a5576112a46111be565b5b5f6112b2878288016111e5565b945050602085013567ffffffffffffffff8111156112d3576112d26111c2565b5b6112df87828801611205565b935093505060406112f287828801611279565b91505092959194509250565b611307816111c6565b82525050565b5f6020820190506113205f8301846112fe565b92915050565b5f73ffffffffffffffffffffffffffffffffffffffff82169050919050565b5f819050919050565b5f61136861136361135e84611326565b611345565b611326565b9050919050565b5f6113798261134e565b9050919050565b5f61138a8261136f565b9050919050565b61139a81611380565b82525050565b5f6020820190506113b35f830184611391565b92915050565b5f6113c38261136f565b9050919050565b6113d3816113b9565b82525050565b5f6020820190506113ec5f8301846113ca565b92915050565b5f60208284031215611407576114066111be565b5b5f61141484828501611279565b91505092915050565b5f60208284031215611432576114316111be565b5b5f61143f848285016111e5565b91505092915050565b6114518161125a565b82525050565b5f81519050919050565b5f82825260208201905092915050565b8281835e5f83830152505050565b5f601f19601f8301169050919050565b5f61149982611457565b6114a38185611461565b93506114b3818560208601611471565b6114bc8161147f565b840191505092915050565b5f8115159050919050565b6114db816114c7565b82525050565b5f60c0820190506114f45f8301896112fe565b61150160208301886112fe565b61150e6040830187611448565b8181036060830152611520818661148f565b905061152f60808301856112fe565b61153c60a08301846114d2565b979650505050505050565b5f5ffd5b7f4e487b71000000000000000000000000000000000000000000000000000000005f52604160045260245ffd5b6115818261147f565b810181811067ffffffffffffffff821117156115a05761159f61154b565b5b80604052505050565b5f6115b26111b5565b90506115be8282611578565b919050565b5f67ffffffffffffffff8211156115dd576115dc61154b565b5b6115e68261147f565b9050602081019050919050565b828183375f83830152505050565b5f61161361160e846115c3565b6115a9565b90508281526020810184848401111561162f5761162e611547565b5b61163a8482856115f3565b509392505050565b5f82601f830112611656576116556111f9565b5b8135611666848260208601611601565b91505092915050565b5f60208284031215611684576116836111be565b5b5f82013567ffffffffffffffff8111156116a1576116a06111c2565b5b6116ad84828501611642565b91505092915050565b5f7fffffffffffffffffffffffffffffffffffffffffff000000000000000000000082169050919050565b6116ea816116b6565b82525050565b5f6020820190506117035f8301846116e1565b92915050565b5f815f0b9050919050565b61171d81611709565b82525050565b5f6040820190506117365f8301856112fe565b6117436020830184611714565b9392505050565b5f61175482611326565b9050919050565b6117648161174a565b82525050565b5f60208201905061177d5f83018461175b565b92915050565b61178c8161174a565b8114611796575f5ffd5b50565b5f813590506117a781611783565b92915050565b5f5f5f604084860312156117c4576117c36111be565b5b5f84013567ffffffffffffffff8111156117e1576117e06111c2565b5b6117ed86828701611205565b9350935050602061180086828701611799565b9150509250925092565b5f6118148261136f565b9050919050565b6118248161180a565b82525050565b5f60208201905061183d5f83018461181b565b92915050565b5f60208284031215611858576118576111be565b5b5f61186584828501611799565b91505092915050565b5f5ffd5b5f606082840312156118875761188661186e565b5b81905092915050565b5f5f604083850312156118a6576118a56111be565b5b5f6118b3858286016111e5565b925050602083013567ffffffffffffffff8111156118d4576118d36111c2565b5b6118e085828601611872565b9150509250929050565b5f60ff82169050919050565b6118ff816118ea565b82525050565b5f6020820190506119185f8301846118f6565b92915050565b7f416d6f756e74206d75737420626520706f7369746976650000000000000000005f82015250565b5f611952601783611461565b915061195d8261191e565b602082019050919050565b5f6020820190508181035f83015261197f81611946565b9050919050565b7f5061796d656e74207265666572656e636520616c7265616479206578697374735f82015250565b5f6119ba602083611461565b91506119c582611986565b602082019050919050565b5f6020820190508181035f8301526119e7816119ae565b9050919050565b7f496e76616c6964206f7261636c652070726963650000000000000000000000005f82015250565b5f611a22601483611461565b9150611a2d826119ee565b602082019050919050565b5f6020820190508181035f830152611a4f81611a16565b9050919050565b5f81905092915050565b5f611a6b8385611a56565b9350611a788385846115f3565b82840190509392505050565b5f611a90828486611a60565b91508190509392505050565b7f556e737570706f727465642063757272656e637920646563696d616c730000005f82015250565b5f611ad0601d83611461565b9150611adb82611a9c565b602082019050919050565b5f6020820190508181035f830152611afd81611ac4565b9050919050565b7f4e487b71000000000000000000000000000000000000000000000000000000005f52601160045260245ffd5b5f611b3b826111c6565b9150611b46836111c6565b9250828202611b54816111c6565b91508282048414831517611b6b57611b6a611b04565b5b5092915050565b5f8160011c9050919050565b5f5f8291508390505b6001851115611bc757808604811115611ba357611ba2611b04565b5b6001851615611bb25780820291505b8081029050611bc085611b72565b9450611b87565b94509492505050565b5f82611bdf5760019050611c9a565b81611bec575f9050611c9a565b8160018114611c025760028114611c0c57611c3b565b6001915050611c9a565b60ff841115611c1e57611c1d611b04565b5b8360020a915084821115611c3557611c34611b04565b5b50611c9a565b5060208310610133831016604e8410600b8410161715611c705782820a905083811115611c6b57611c6a611b04565b5b611c9a565b611c7d8484846001611b7e565b92509050818404811115611c9457611c93611b04565b5b81810290505b9392505050565b5f611cab826111c6565b9150611cb6836118ea565b9250611ce37fffffffffffffffffffffffffffffffffffffffffffffffffffffffffffffffff8484611bd0565b905092915050565b7f4e487b71000000000000000000000000000000000000000000000000000000005f52601260045260245ffd5b5f611d22826111c6565b9150611d2d836111c6565b925082611d3d57611d3c611ceb565b5b828204905092915050565b5f611d52826111c6565b91507fffffffffffffffffffffffffffffffffffffffffffffffffffffffffffffffff8203611d8457611d83611b04565b5b600182019050919050565b7f4e487b71000000000000000000000000000000000000000000000000000000005f52602260045260245ffd5b5f6002820490506001821680611dd357607f821691505b602082108103611de657611de5611d8f565b5b50919050565b5f819050815f5260205f209050919050565b5f6020601f8301049050919050565b5f82821b905092915050565b5f60088302611e487fffffffffffffffffffffffffffffffffffffffffffffffffffffffffffffffff82611e0d565b611e528683611e0d565b95508019841693508086168417925050509392505050565b5f611e84611e7f611e7a846111c6565b611345565b6111c6565b9050919050565b5f819050919050565b611e9d83611e6a565b611eb1611ea982611e8b565b848454611e19565b825550505050565b5f5f905090565b611ec8611eb9565b611ed3818484611e94565b505050565b5f5b82811015611ef957611eee5f828401611ec0565b600181019050611eda565b505050565b601f821115611f4c5782821115611f4b57611f1881611dec565b611f2183611dfe565b611f2a85611dfe565b6020861015611f37575f90505b808301611f4682840382611ed8565b505050505b5b505050565b5f82821c905092915050565b5f611f6c5f1984600802611f51565b1980831691505092915050565b5f611f848383611f5d565b9150826002028217905092915050565b611f9d82611457565b67ffffffffffffffff811115611fb657611fb561154b565b5b611fc08254611dbc565b611fcb828285611efe565b5f60209050601f831160018114611ffc575f8415611fea578287015190505b611ff48582611f79565b86555061205b565b601f19841661200a86611dec565b5f5b828110156120315784890151825560018201915060208501945060208101905061200c565b8683101561204e578489015161204a601f891682611f5d565b8355505b6001600288020188555050505b505050505050565b5f61206e8385611461565b935061207b8385846115f3565b6120848361147f565b840190509392505050565b5f6060820190506120a25f8301876112fe565b81810360208301526120b5818587612063565b90506120c460408301846112fe565b95945050505050565b5f6120d782611457565b6120e18185611a56565b93506120f1818560208601611471565b80840191505092915050565b5f61210882846120cd565b915081905092915050565b7f556e737570706f727465642070726963652066656564000000000000000000005f82015250565b5f612147601683611461565b915061215282612113565b602082019050919050565b5f6020820190508181035f8301526121748161213b565b9050919050565b5f81519050612189816111cf565b92915050565b61219881611709565b81146121a2575f5ffd5b50565b5f815190506121b38161218f565b92915050565b5f67ffffffffffffffff82169050919050565b6121d5816121b9565b81146121df575f5ffd5b50565b5f815190506121f0816121cc565b92915050565b5f5f5f6060848603121561220d5761220c6111be565b5b5f61221a8682870161217b565b935050602061222b868287016121a5565b925050604061223c868287016121e2565b9150509250925092565b7f4f6e6c79206f776e65722063616e2065786563757465207468697300000000005f82015250565b5f61227a601b83611461565b915061228582612246565b602082019050919050565b5f6020820190508181035f8301526122a78161226e565b9050919050565b7f496e766f69636520646f6573206e6f74206578697374000000000000000000005f82015250565b5f6122e2601683611461565b91506122ed826122ae565b602082019050919050565b5f6020820190508181035f83015261230f816122d6565b9050919050565b7f496e766f69636520616c726561647920736574746c65640000000000000000005f82015250565b5f61234a601783611461565b915061235582612316565b602082019050919050565b5f6020820190508181035f8301526123778161233e565b9050919050565b5f5ffd5b5f5ffd5b5f5ffd5b5f8235600160c0038336030381126123a5576123a461237e565b5b80830191505092915050565b7f5061796d656e74207265666572656e6365206d69736d617463680000000000005f82015250565b5f6123e5601a83611461565b91506123f0826123b1565b602082019050919050565b5f6020820190508181035f830152612412816123d9565b9050919050565b5f81905092915050565b5f819050815f5260205f209050919050565b5f815461244181611dbc565b61244b8186612419565b9450600182165f8114612465576001811461247a576124ac565b60ff19831686528115158202860193506124ac565b61248385612423565b5f5b838110156124a457815481890152600182019150602081019050612485565b838801955050505b50505092915050565b5f6124c08284612435565b915081905092915050565b5f5f833560016020038436030381126124e7576124e661237e565b5b80840192508235915067ffffffffffffffff82111561250957612508612382565b5b60208301925060018202360383131561252557612524612386565b5b509250929050565b5f6125388385612419565b93506125458385846115f3565b82840190509392505050565b5f61255d82848661252d565b91508190509392505050565b7f43757272656e637920636861696e206d69736d617463680000000000000000005f82015250565b5f61259d601783611461565b91506125a882612569565b602082019050919050565b5f6020820190508181035f8301526125ca81612591565b9050919050565b7f5061696420616d6f756e7420697320696e73756666696369656e7400000000005f82015250565b5f612605601b83611461565b9150612610826125d1565b602082019050919050565b5f6020820190508181035f830152612632816125f9565b9050919050565b7f496e76616c6964206174746573746174696f6e207479706500000000000000005f82015250565b5f61266d601883611461565b915061267882612639565b602082019050919050565b5f6020820190508181035f83015261269a81612661565b9050919050565b5f6126af6020840184611279565b905092915050565b6126c08161125a565b82525050565b5f5ffd5b5f5ffd5b5f5ffd5b5f5f833560016020038436030381126126ee576126ed6126ce565b5b83810192508235915060208301925067ffffffffffffffff821115612716576127156126c6565b5b60208202360383131561272c5761272b6126ca565b5b509250929050565b5f82825260208201905092915050565b5f5ffd5b82818337505050565b5f61275c8385612734565b93507f07ffffffffffffffffffffffffffffffffffffffffffffffffffffffffffffff83111561278f5761278e612744565b5b6020830292506127a0838584612748565b82840190509392505050565b5f8235600160c0038336030381126127c7576127c66126ce565b5b82810191505092915050565b5f5f833560016020038436030381126127ef576127ee6126ce565b5b83810192508235915060208301925067ffffffffffffffff821115612817576128166126c6565b5b60018202360383131561282d5761282c6126ca565b5b509250929050565b5f82825260208201905092915050565b5f6128508385612835565b935061285d8385846115f3565b6128668361147f565b840190509392505050565b5f61287f60208401846111e5565b905092915050565b612890816111c6565b82525050565b5f60c083016128a75f8401846127d3565b8583035f8701526128b9838284612845565b925050506128ca60208401846127d3565b85830360208701526128dd838284612845565b925050506128ee60408401846126a1565b6128fb60408601826126b7565b5061290960608401846126a1565b61291660608601826126b7565b506129246080840184612871565b6129316080860182612887565b5061293f60a08401846127d3565b85830360a0870152612952838284612845565b925050508091505092915050565b5f606083016129715f8401846126a1565b61297d5f8601826126b7565b5061298b60208401846126d2565b858303602087015261299e838284612751565b925050506129af60408401846127ac565b84820360408601526129c18282612896565b9150508091505092915050565b5f6020820190508181035f8301526129e68184612960565b905092915050565b6129f7816114c7565b8114612a01575f5ffd5b50565b5f81519050612a12816129ee565b92915050565b5f60208284031215612a2d57612a2c6111be565b5b5f612a3a84828501612a04565b91505092915050565b7f464443206174746573746174696f6e2070726f6f6620766572696669636174695f8201527f6f6e206661696c65640000000000000000000000000000000000000000000000602082015250565b5f612a9d602983611461565b9150612aa882612a43565b604082019050919050565b5f6020820190508181035f830152612aca81612a91565b9050919050565b5f8154612add81611dbc565b612ae78186611a56565b9450600182165f8114612b015760018114612b1657612b48565b60ff1983168652811515820286019350612b48565b612b1f85611dec565b5f5b83811015612b4057815481890152600182019150602081019050612b21565b838801955050505b50505092915050565b5f612b5c8284612ad1565b915081905092915050565b5f604082019050612b7a5f83018561175b565b612b8760208301846112fe565b9392505050565b5f606082019050612ba15f830186611448565b612bae60208301856112fe565b612bbb60408301846112fe565b94935050505056fea264697066735822122062a68549860222c5bebdfca1a36a5c5093d18c2d0117cd453b7eec2f3b87aae864736f6c63430008230033","linkReferences":{}},"methodIdentifiers":{"createInvoice(uint256,string,bytes32)":"008f248b","fAssets(string)":"dbeca2a0","fdcVerification()":"3ad6d516","ftsoFeeds(string)":"60a04c77","ftsoV2()":"25e89883","getLivePrice(string)":"86981478","invoiceCount()":"1346f0c4","invoices(uint256)":"4e6d1405","merchantWallet()":"bc85e064","owner()":"8da5cb5b","referenceToInvoiceId(bytes32)":"4cfa2b24","setFAsset(string,address)":"a6883929","setFdcVerification(address)":"e443147f","setMerchantWallet(address)":"ddda66db","settlePayment(uint256,(bytes32,bytes32[],(string,string,bytes32,bytes32,uint256,string)))":"e66c64b9","tokenDecimals(string)":"f454fd9b"},"id":19}