{"abi":[{"type":"constructor","inputs":[{"name":"_name","type":"string","internalType":"string"},{"name":"_symbol","type":"string","internalType":"string"},{"name":"_decimals","type":"uint8","internalType":"uint8"}],"stateMutability":"nonpayable"},{"type":"function","name":"allowance","inputs":[{"name":"","type":"address","internalType":"address"},{"name":"","type":"address","internalType":"address"}],"outputs":[{"name":"","type":"uint256","internalType":"uint256"}],"stateMutability":"view"},{"type":"function","name":"approve","inputs":[{"name":"_spender","type":"address","internalType":"address"},{"name":"_value","type":"uint256","internalType":"uint256"}],"outputs":[{"name":"","type":"bool","internalType":"bool"}],"stateMutability":"nonpayable"},{"type":"function","name":"balanceOf","inputs":[{"name":"","type":"address","internalType":"address"}],"outputs":[{"name":"","type":"uint256","internalType":"uint256"}],"stateMutability":"view"},{"type":"function","name":"decimals","inputs":[],"outputs":[{"name":"","type":"uint8","internalType":"uint8"}],"stateMutability":"view"},{"type":"function","name":"gateway","inputs":[],"outputs":[{"name":"","type":"address","internalType":"address"}],"stateMutability":"view"},{"type":"function","name":"mint","inputs":[{"name":"_to","type":"address","internalType":"address"},{"name":"_amount","type":"uint256","internalType":"uint256"}],"outputs":[],"stateMutability":"nonpayable"},{"type":"function","name":"name","inputs":[],"outputs":[{"name":"","type":"string","internalType":"string"}],"stateMutability":"view"},{"type":"function","name":"setGateway","inputs":[{"name":"_newGateway","type":"address","internalType":"address"}],"outputs":[],"stateMutability":"nonpayable"},{"type":"function","name":"symbol","inputs":[],"outputs":[{"name":"","type":"string","internalType":"string"}],"stateMutability":"view"},{"type":"function","name":"totalSupply","inputs":[],"outputs":[{"name":"","type":"uint256","internalType":"uint256"}],"stateMutability":"view"},{"type":"function","name":"transfer","inputs":[{"name":"_to","type":"address","internalType":"address"},{"name":"_value","type":"uint256","internalType":"uint256"}],"outputs":[{"name":"","type":"bool","internalType":"bool"}],"stateMutability":"nonpayable"},{"type":"function","name":"transferFrom","inputs":[{"name":"_from","type":"address","internalType":"address"},{"name":"_to","type":"address","internalType":"address"},{"name":"_value","type":"uint256","internalType":"uint256"}],"outputs":[{"name":"","type":"bool","internalType":"bool"}],"stateMutability":"nonpayable"},{"type":"event","name":"Approval","inputs":[{"name":"owner","type":"address","indexed":true,"internalType":"address"},{"name":"spender","type":"address","indexed":true,"internalType":"address"},{"name":"value","type":"uint256","indexed":false,"internalType":"uint256"}],"anonymous":false},{"type":"event","name":"Transfer","inputs":[{"name":"from","type":"address","indexed":true,"internalType":"address"},{"name":"to","type":"address","indexed":true,"internalType":"address"},{"name":"value","type":"uint256","indexed":false,"internalType":"uint256"}],"anonymous":false}],"bytecode":{"object":"0x60a060405234801561000f575f5ffd5b5060405161168d38038061168d83398181016040528101906100319190610229565b825f908161003f91906104d2565b50816001908161004f91906104d2565b508060ff1660808160ff16815250503360055f6101000a81548173ffffffffffffffffffffffffffffffffffffffff021916908373ffffffffffffffffffffffffffffffffffffffff1602179055505050506105a1565b5f604051905090565b5f5ffd5b5f5ffd5b5f5ffd5b5f5ffd5b5f601f19601f8301169050919050565b7f4e487b71000000000000000000000000000000000000000000000000000000005f52604160045260245ffd5b610105826100bf565b810181811067ffffffffffffffff82111715610124576101236100cf565b5b80604052505050565b5f6101366100a6565b905061014282826100fc565b919050565b5f67ffffffffffffffff821115610161576101606100cf565b5b61016a826100bf565b9050602081019050919050565b8281835e5f83830152505050565b5f61019761019284610147565b61012d565b9050828152602081018484840111156101b3576101b26100bb565b5b6101be848285610177565b509392505050565b5f82601f8301126101da576101d96100b7565b5b81516101ea848260208601610185565b91505092915050565b5f60ff82169050919050565b610208816101f3565b8114610212575f5ffd5b50565b5f81519050610223816101ff565b92915050565b5f5f5f606084860312156102405761023f6100af565b5b5f84015167ffffffffffffffff81111561025d5761025c6100b3565b5b610269868287016101c6565b935050602084015167ffffffffffffffff81111561028a576102896100b3565b5b610296868287016101c6565b92505060406102a786828701610215565b9150509250925092565b5f81519050919050565b7f4e487b71000000000000000000000000000000000000000000000000000000005f52602260045260245ffd5b5f60028204905060018216806102ff57607f821691505b602082108103610312576103116102bb565b5b50919050565b5f819050815f5260205f209050919050565b5f6020601f8301049050919050565b5f82821b905092915050565b5f600883026103747fffffffffffffffffffffffffffffffffffffffffffffffffffffffffffffffff82610339565b61037e8683610339565b95508019841693508086168417925050509392505050565b5f819050919050565b5f819050919050565b5f6103c26103bd6103b884610396565b61039f565b610396565b9050919050565b5f819050919050565b6103db836103a8565b6103ef6103e7826103c9565b848454610345565b825550505050565b5f5f905090565b6104066103f7565b6104118184846103d2565b505050565b5f5b828110156104375761042c5f8284016103fe565b600181019050610418565b505050565b601f82111561048a57828211156104895761045681610318565b61045f8361032a565b6104688561032a565b6020861015610475575f90505b80830161048482840382610416565b505050505b5b505050565b5f82821c905092915050565b5f6104aa5f198460080261048f565b1980831691505092915050565b5f6104c2838361049b565b9150826002028217905092915050565b6104db826102b1565b67ffffffffffffffff8111156104f4576104f36100cf565b5b6104fe82546102e8565b61050982828561043c565b5f60209050601f83116001811461053a575f8415610528578287015190505b61053285826104b7565b865550610599565b601f19841661054886610318565b5f5b8281101561056f5784890151825560018201915060208501945060208101905061054a565b8683101561058c5784890151610588601f89168261049b565b8355505b6001600288020188555050505b505050505050565b6080516110d46105b95f395f6106f901526110d45ff3fe608060405234801561000f575f5ffd5b50600436106100b2575f3560e01c806340c10f191161006f57806340c10f191461018e57806370a08231146101aa57806390646b4a146101da57806395d89b41146101f6578063a9059cbb14610214578063dd62ed3e14610244576100b2565b806306fdde03146100b6578063095ea7b3146100d4578063116191b61461010457806318160ddd1461012257806323b872dd14610140578063313ce56714610170575b5f5ffd5b6100be610274565b6040516100cb9190610c17565b60405180910390f35b6100ee60048036038101906100e99190610cc8565b6102ff565b6040516100fb9190610d20565b60405180910390f35b61010c6103ec565b6040516101199190610d48565b60405180910390f35b61012a610411565b6040516101379190610d70565b60405180910390f35b61015a60048036038101906101559190610d89565b610417565b6040516101679190610d20565b60405180910390f35b6101786106f7565b6040516101859190610df4565b60405180910390f35b6101a860048036038101906101a39190610cc8565b61071b565b005b6101c460048036038101906101bf9190610e0d565b61087e565b6040516101d19190610d70565b60405180910390f35b6101f460048036038101906101ef9190610e0d565b610893565b005b6101fe610965565b60405161020b9190610c17565b60405180910390f35b61022e60048036038101906102299190610cc8565b6109f1565b60405161023b9190610d20565b60405180910390f35b61025e60048036038101906102599190610e38565b610b87565b60405161026b9190610d70565b60405180910390f35b5f805461028090610ea3565b80601f01602080910402602001604051908101604052809291908181526020018280546102ac90610ea3565b80156102f75780601f106102ce576101008083540402835291602001916102f7565b820191905f5260205f20905b8154815290600101906020018083116102da57829003601f168201915b505050505081565b5f8160045f3373ffffffffffffffffffffffffffffffffffffffff1673ffffffffffffffffffffffffffffffffffffffff1681526020019081526020015f205f8573ffffffffffffffffffffffffffffffffffffffff1673ffffffffffffffffffffffffffffffffffffffff1681526020019081526020015f20819055508273ffffffffffffffffffffffffffffffffffffffff163373ffffffffffffffffffffffffffffffffffffffff167f8c5be1e5ebec7d5bd14f71427d1e84f3dd0314c0f7b2291e5b200ac8c7c3b925846040516103da9190610d70565b60405180910390a36001905092915050565b60055f9054906101000a900473ffffffffffffffffffffffffffffffffffffffff1681565b60025481565b5f8160035f8673ffffffffffffffffffffffffffffffffffffffff1673ffffffffffffffffffffffffffffffffffffffff1681526020019081526020015f20541015610498576040517f08c379a000000000000000000000000000000000000000000000000000000000815260040161048f90610f1d565b60405180910390fd5b8160045f8673ffffffffffffffffffffffffffffffffffffffff1673ffffffffffffffffffffffffffffffffffffffff1681526020019081526020015f205f3373ffffffffffffffffffffffffffffffffffffffff1673ffffffffffffffffffffffffffffffffffffffff1681526020019081526020015f20541015610553576040517f08c379a000000000000000000000000000000000000000000000000000000000815260040161054a90610f85565b60405180910390fd5b8160035f8673ffffffffffffffffffffffffffffffffffffffff1673ffffffffffffffffffffffffffffffffffffffff1681526020019081526020015f205f82825461059f9190610fd0565b925050819055508160035f8573ffffffffffffffffffffffffffffffffffffffff1673ffffffffffffffffffffffffffffffffffffffff1681526020019081526020015f205f8282546105f29190611003565b925050819055508160045f8673ffffffffffffffffffffffffffffffffffffffff1673ffffffffffffffffffffffffffffffffffffffff1681526020019081526020015f205f3373ffffffffffffffffffffffffffffffffffffffff1673ffffffffffffffffffffffffffffffffffffffff1681526020019081526020015f205f8282546106809190610fd0565b925050819055508273ffffffffffffffffffffffffffffffffffffffff168473ffffffffffffffffffffffffffffffffffffffff167fddf252ad1be2c89b69c2b068fc378daa952ba7f163c4a11628f55a4df523b3ef846040516106e49190610d70565b60405180910390a3600190509392505050565b7f000000000000000000000000000000000000000000000000000000000000000081565b60055f9054906101000a900473ffffffffffffffffffffffffffffffffffffffff1673ffffffffffffffffffffffffffffffffffffffff163373ffffffffffffffffffffffffffffffffffffffff16146107aa576040517f08c379a00000000000000000000000000000000000000000000000000000000081526004016107a190611080565b60405180910390fd5b8060035f8473ffffffffffffffffffffffffffffffffffffffff1673ffffffffffffffffffffffffffffffffffffffff1681526020019081526020015f205f8282546107f69190611003565b925050819055508060025f82825461080e9190611003565b925050819055508173ffffffffffffffffffffffffffffffffffffffff165f73ffffffffffffffffffffffffffffffffffffffff167fddf252ad1be2c89b69c2b068fc378daa952ba7f163c4a11628f55a4df523b3ef836040516108729190610d70565b60405180910390a35050565b6003602052805f5260405f205f915090505481565b60055f9054906101000a900473ffffffffffffffffffffffffffffffffffffffff1673ffffffffffffffffffffffffffffffffffffffff163373ffffffffffffffffffffffffffffffffffffffff1614610922576040517f08c379a000000000000000000000000000000000000000000000000000000000815260040161091990611080565b60405180910390fd5b8060055f6101000a81548173ffffffffffffffffffffffffffffffffffffffff021916908373ffffffffffffffffffffffffffffffffffffffff16021790555050565b6001805461097290610ea3565b80601f016020809104026020016040519081016040528092919081815260200182805461099e90610ea3565b80156109e95780601f106109c0576101008083540402835291602001916109e9565b820191905f5260205f20905b8154815290600101906020018083116109cc57829003601f168201915b505050505081565b5f8160035f3373ffffffffffffffffffffffffffffffffffffffff1673ffffffffffffffffffffffffffffffffffffffff1681526020019081526020015f20541015610a72576040517f08c379a0000000000000000000000000000000000000000000000000000000008152600401610a6990610f1d565b60405180910390fd5b8160035f3373ffffffffffffffffffffffffffffffffffffffff1673ffffffffffffffffffffffffffffffffffffffff1681526020019081526020015f205f828254610abe9190610fd0565b925050819055508160035f8573ffffffffffffffffffffffffffffffffffffffff1673ffffffffffffffffffffffffffffffffffffffff1681526020019081526020015f205f828254610b119190611003565b925050819055508273ffffffffffffffffffffffffffffffffffffffff163373ffffffffffffffffffffffffffffffffffffffff167fddf252ad1be2c89b69c2b068fc378daa952ba7f163c4a11628f55a4df523b3ef84604051610b759190610d70565b60405180910390a36001905092915050565b6004602052815f5260405f20602052805f5260405f205f91509150505481565b5f81519050919050565b5f82825260208201905092915050565b8281835e5f83830152505050565b5f601f19601f8301169050919050565b5f610be982610ba7565b610bf38185610bb1565b9350610c03818560208601610bc1565b610c0c81610bcf565b840191505092915050565b5f6020820190508181035f830152610c2f8184610bdf565b905092915050565b5f5ffd5b5f73ffffffffffffffffffffffffffffffffffffffff82169050919050565b5f610c6482610c3b565b9050919050565b610c7481610c5a565b8114610c7e575f5ffd5b50565b5f81359050610c8f81610c6b565b92915050565b5f819050919050565b610ca781610c95565b8114610cb1575f5ffd5b50565b5f81359050610cc281610c9e565b92915050565b5f5f60408385031215610cde57610cdd610c37565b5b5f610ceb85828601610c81565b9250506020610cfc85828601610cb4565b9150509250929050565b5f8115159050919050565b610d1a81610d06565b82525050565b5f602082019050610d335f830184610d11565b92915050565b610d4281610c5a565b82525050565b5f602082019050610d5b5f830184610d39565b92915050565b610d6a81610c95565b82525050565b5f602082019050610d835f830184610d61565b92915050565b5f5f5f60608486031215610da057610d9f610c37565b5b5f610dad86828701610c81565b9350506020610dbe86828701610c81565b9250506040610dcf86828701610cb4565b9150509250925092565b5f60ff82169050919050565b610dee81610dd9565b82525050565b5f602082019050610e075f830184610de5565b92915050565b5f60208284031215610e2257610e21610c37565b5b5f610e2f84828501610c81565b91505092915050565b5f5f60408385031215610e4e57610e4d610c37565b5b5f610e5b85828601610c81565b9250506020610e6c85828601610c81565b9150509250929050565b7f4e487b71000000000000000000000000000000000000000000000000000000005f52602260045260245ffd5b5f6002820490506001821680610eba57607f821691505b602082108103610ecd57610ecc610e76565b5b50919050565b7f496e73756666696369656e742062616c616e63650000000000000000000000005f82015250565b5f610f07601483610bb1565b9150610f1282610ed3565b602082019050919050565b5f6020820190508181035f830152610f3481610efb565b9050919050565b7f496e73756666696369656e7420616c6c6f77616e6365000000000000000000005f82015250565b5f610f6f601683610bb1565b9150610f7a82610f3b565b602082019050919050565b5f6020820190508181035f830152610f9c81610f63565b9050919050565b7f4e487b71000000000000000000000000000000000000000000000000000000005f52601160045260245ffd5b5f610fda82610c95565b9150610fe583610c95565b9250828203905081811115610ffd57610ffc610fa3565b5b92915050565b5f61100d82610c95565b915061101883610c95565b92508282019050808211156110305761102f610fa3565b5b92915050565b7f4f6e6c7920676174657761792063616e206578656375746520746869730000005f82015250565b5f61106a601d83610bb1565b915061107582611036565b602082019050919050565b5f6020820190508181035f8301526110978161105e565b905091905056fea2646970667358221220afc5f29f7a21709ec0e81d1cb1458aac951c38db640853b31ae8f8f760a194d564736f6c63430008230033","linkReferences":{}},"methodIdentifiers":{"allowance(address,address)":"dd62ed3e","approve(address,uint256)":"095ea7b3","balanceOf(address)":"70a08231","decimals()":"313ce567","gateway()":"116191b6","mint(address,uint256)":"40c10f19","name()":"06fdde03","setGateway(address)":"90646b4a","symbol()":"95d89b41","totalSupply()":"18160ddd","transfer(address,uint256)":"a9059cbb","transferFrom(address,address,uint256)":"23b872dd"},"id":20}