{"abi":[{"type":"function","name":"feedDecimals","inputs":[{"name":"","type":"bytes21","internalType":"bytes21"}],"outputs":[{"name":"","type":"int8","internalType":"int8"}],"stateMutability":"view"},{"type":"function","name":"feedPrices","inputs":[{"name":"","type":"bytes21","internalType":"bytes21"}],"outputs":[{"name":"","type":"uint256","internalType":"uint256"}],"stateMutability":"view"},{"type":"function","name":"getFeedById","inputs":[{"name":"_feedId","type":"bytes21","internalType":"bytes21"}],"outputs":[{"name":"value","type":"uint256","internalType":"uint256"},{"name":"decimals","type":"int8","internalType":"int8"},{"name":"timestamp","type":"uint64","internalType":"uint64"}],"stateMutability":"view"},{"type":"function","name":"setPrice","inputs":[{"name":"_feedId","type":"bytes21","internalType":"bytes21"},{"name":"_price","type":"uint256","internalType":"uint256"},{"name":"_decimals","type":"int8","internalType":"int8"}],"outputs":[],"stateMutability":"nonpayable"}],"bytecode":{"object":"0x6080604052348015600e575f5ffd5b506104f38061001c5f395ff3fe608060405234801561000f575f5ffd5b506004361061004a575f3560e01c80632b40c32f1461004e57806393e9f8061461006a578063941e9d211461009c578063b3b413c9146100cc575b5f5ffd5b61006860048036038101906100639190610323565b6100fc565b005b610084600480360381019061007f9190610373565b610179565b604051610093939291906103de565b60405180910390f35b6100b660048036038101906100b19190610373565b610232565b6040516100c39190610413565b60405180910390f35b6100e660048036038101906100e19190610373565b610246565b6040516100f3919061042c565b60405180910390f35b815f5f856affffffffffffffffffffff19166affffffffffffffffffffff191681526020019081526020015f20819055508060015f856affffffffffffffffffffff19166affffffffffffffffffffff191681526020019081526020015f205f6101000a81548160ff02191690835f0b60ff160217905550505050565b5f5f5f5f5f856affffffffffffffffffffff19166affffffffffffffffffffff191681526020019081526020015f2054925060015f856affffffffffffffffffffff19166affffffffffffffffffffff191681526020019081526020015f205f9054906101000a90045f0b91505f8311610228576040517f08c379a000000000000000000000000000000000000000000000000000000000815260040161021f9061049f565b60405180910390fd5b4290509193909250565b5f602052805f5260405f205f915090505481565b6001602052805f5260405f205f915054906101000a90045f0b81565b5f5ffd5b5f7fffffffffffffffffffffffffffffffffffffffffff000000000000000000000082169050919050565b61029a81610266565b81146102a4575f5ffd5b50565b5f813590506102b581610291565b92915050565b5f819050919050565b6102cd816102bb565b81146102d7575f5ffd5b50565b5f813590506102e8816102c4565b92915050565b5f815f0b9050919050565b610302816102ee565b811461030c575f5ffd5b50565b5f8135905061031d816102f9565b92915050565b5f5f5f6060848603121561033a57610339610262565b5b5f610347868287016102a7565b9350506020610358868287016102da565b92505060406103698682870161030f565b9150509250925092565b5f6020828403121561038857610387610262565b5b5f610395848285016102a7565b91505092915050565b6103a7816102bb565b82525050565b6103b6816102ee565b82525050565b5f67ffffffffffffffff82169050919050565b6103d8816103bc565b82525050565b5f6060820190506103f15f83018661039e565b6103fe60208301856103ad565b61040b60408301846103cf565b949350505050565b5f6020820190506104265f83018461039e565b92915050565b5f60208201905061043f5f8301846103ad565b92915050565b5f82825260208201905092915050565b7f4d6f636b2066656564207072696365206e6f7420696e697469616c697a6564005f82015250565b5f610489601f83610445565b915061049482610455565b602082019050919050565b5f6020820190508181035f8301526104b68161047d565b905091905056fea26469706673582212208c40dba959202fe3679d262ac0774a89cd018c4a7230199dc5e5cfdfd1e9587064736f6c63430008230033","linkReferences":{}},"methodIdentifiers":{"feedDecimals(bytes21)":"b3b413c9","feedPrices(bytes21)":"941e9d21","getFeedById(bytes21)":"93e9f806","setPrice(bytes21,uint256,int8)":"2b40c32f"},"id":23}