{"abi":[{"type":"function","name":"mockVerificationResult","inputs":[],"outputs":[{"name":"","type":"bool","internalType":"bool"}],"stateMutability":"view"},{"type":"function","name":"setMockResult","inputs":[{"name":"_result","type":"bool","internalType":"bool"}],"outputs":[],"stateMutability":"nonpayable"},{"type":"function","name":"verifyPayment","inputs":[{"name":"","type":"tuple","internalType":"struct IPaymentVerification.Proof","components":[{"name":"merkleRoot","type":"bytes32","internalType":"bytes32"},{"name":"merkleProof","type":"bytes32[]","internalType":"bytes32[]"},{"name":"requestBody","type":"tuple","internalType":"struct IPaymentVerification.RequestBody","components":[{"name":"attestationType","type":"string","internalType":"string"},{"name":"sourceId","type":"string","internalType":"string"},{"name":"transactionId","type":"bytes32","internalType":"bytes32"},{"name":"paymentReference","type":"bytes32","internalType":"bytes32"},{"name":"amount","type":"uint256","internalType":"uint256"},{"name":"receivingAddress","type":"string","internalType":"string"}]}]}],"outputs":[{"name":"","type":"bool","internalType":"bool"}],"stateMutability":"view"}],"bytecode":{"object":"0x608060405260015f5f6101000a81548160ff0219169083151502179055503480156027575f5ffd5b5061021e806100355f395ff3fe608060405234801561000f575f5ffd5b506004361061003f575f3560e01c80630cacbfc9146100435780632840176314610073578063b089c1be14610091575b5f5ffd5b61005d60048036038101906100589190610119565b6100ad565b60405161006a919061017a565b60405180910390f35b61007b6100c3565b604051610088919061017a565b60405180910390f35b6100ab60048036038101906100a691906101bd565b6100d4565b005b5f5f5f9054906101000a900460ff169050919050565b5f5f9054906101000a900460ff1681565b805f5f6101000a81548160ff02191690831515021790555050565b5f5ffd5b5f5ffd5b5f5ffd5b5f606082840312156101105761010f6100f7565b5b81905092915050565b5f6020828403121561012e5761012d6100ef565b5b5f82013567ffffffffffffffff81111561014b5761014a6100f3565b5b610157848285016100fb565b91505092915050565b5f8115159050919050565b61017481610160565b82525050565b5f60208201905061018d5f83018461016b565b92915050565b61019c81610160565b81146101a6575f5ffd5b50565b5f813590506101b781610193565b92915050565b5f602082840312156101d2576101d16100ef565b5b5f6101df848285016101a9565b9150509291505056fea2646970667358221220ba44fc29a279b6f72c81bb5f3738a67ecb53d1e3dde1f565f9988fb4343f079d64736f6c63430008230033","linkReferences":{}},"methodIdentifiers":{"mockVerificationResult()":"28401763","setMockResult(bool)":"b089c1be","verifyPayment((bytes32,bytes32[],(string,string,bytes32,bytes32,uint256,string)))":"0cacbfc9"},"id":22}